:400000000080002011000000B9110000B911000080B500AF024A034B1B68136001F0D6F8BC760040FA46004010B5054C237833B9044B13B10448AFF300800123237010BDB4
:400040005881FF1F0000000084320000084B10B51BB108490848AFF300800848036803B910BD074B002BFBD0BDE81040184700BF000000005C81FF1F84320000C880FF1F76
:40008000000000002DE9F04F93B000AF02F03CF803467B64002002F049F802F0BBF803463B64002002F0C8F87B6CFB633B6CBB63FB6B002BB8BF5B427B63BB6B002BB8BFA4
:4000C0005B423B637A6B3B6B1344DA0F13445B10FB62FA6BBB6B1344002B01DB012301E04FF0FF33BB62FB6A19464FEAE1720B461446DB1844EB04045B1844EB02044FEA59
:40010000840949EA93794FEA830843464C465B1844EB02044FEAC40B4BEA537B4FEAC30A13EB0A0344EB0B04E0007861786940EA53707861DB003B61D7E904345B1844EBA1
:400140000204C7E90834D7E9083413F5FA7044F100014FF47A724FF0000302F08BFE03460C46FB61FB6919464FEAE1720B461446DB1844EB04045B1844EB0204E000F86002
:40018000F86840EA5370F860DB00BB60D7E902345B1844EB0204260146EA13761D01ED1A66EB0406B3007B607B6843EA95737B60AB003B60D7E900562B46344613F5FA706C
:4001C00044F100014FF47A724FF0000302F052FE03460C461A46BB6A03FB02F3BB61064B1A68BB691344044A136002F0BBFA00BF4C37BD46BDE8F08F7C81FF1F80B582B046
:4002000000AF0346FB80FB880A2B02D84FF0000310E0FB88632B02D94FF07E530AE0FB880A3B184602F0E6FB03460449184602F0E9FC034618460837BD4680BD0000B442C1
:4002400080B588B000AFF860B9607A60002000F0E9FA0346FB83012000F0E4FA0346BB83022000F0DFFA03467B83032000F0DAFA03463B83042000F0D5FA0346FB820520F9
:4002800000F0D0FA0346BB82FB68002B02D0FB683A8B1A80BB68002B02D0BB68FA8A1A807B68002B02D07B68BA8A1A80FB8B0A2B04D9FB8B632B01D8012200E00022284BBD
:4002C0001A70BB8B0A2B04D9BB8B632B01D8012200E00022234B1A707B8B0A2B04D97B8B632B01D8012200E000221F4B1A703B8B0A2B04D93B8B632B01D8012200E000228A
:400300001A4B1A70FB8A0A2B04D9FB8A632B01D8012200E00022164B1A70BB8A0A2B04D9BB8A632B01D8012200E00022114B1A70114B1B78DBB2002B0ED1094B1B78002B95
:4003400003D00D4B01221A7006E0064B1B78002B02D0094B02221A7000BF2037BD4680BD7481FF1F7581FF1F7681FF1F7781FF1F7881FF1F7981FF1F7A81FF1F80B584B083
:4003800000AFF860B9607A60B968F86802F024FD0346002B01D0BB6809E07968F86802F039FD0346002B01D07B6800E0FB6818461037BD4680BD00BF90B591B000AFF86059
:4003C000084611461A4603467B810B463B811346FB807B891846FFF711FF03461946184602F054FA0346BB633B891846FFF706FF03461946184602F049FA03467B63FB88BB
:400400001846FFF7FBFE03461946184602F03EFA03463B63796BB86B02F038FA0346396B184602F033FA0346FB6201231C467949F86A02F0EFFC0346002B01D100231C46CB
:4004400087F82B404FF00003FB6397F82B30002B15D04FF00001786B02F020FB0346B96B184602F011FA0346396B184602F00EFA0346F96A184602F0C5FB0346FB63FB6BF2
:400480007B6297F82B3083F00103DBB2002B2AD0FB689B686049184602F0F8F903461A46FB689A60FB689B684FF07A51184602F0A7FC0346002B09D0FB681B685749184662
:4004C00002F0ECFA03461A46FB681A60FB685B68534A54491846FFF751FF0346184602F0A3FC034691E0FB684FF000029A60FB681C684949786A02F0D1FA034619462046E4
:4005000002F0C4F90346484A48491846FFF736FF38624349786A02F0C1FA03461C463B6A1946184602F0B2F903461946204602F0ADF90346FB613A4A3A49F869FFF71EFFF2
:40054000B86101231C463A49B86902F059FC0346002B01D100231C46FC7501231C463549B86902F043FC0346002B01D100231C46BC75FB7D002B14D03B6A1946184602F088
:4005800085F903461C46FB681B681946184602F07DF903461946204602F03CFC0346002B1AD1BB7D002B14D03B6A1946184602F06DF903461C46FB681B681946184602F02F
:4005C00065F903461946204602F006FC0346002B02D1FB683A6A1A60FB68BA695A604FF00001B86902F00CFC0346002B02D04FF07C5301E04FF03F43B969184602F046F991
:400600000346184602F010FC034618464437BD4690BD00BF0AD7A33D6F12033C1F856B3F00009041000090C10000F0410000F0C1F4FD8F41F4FD8FC180B588B000AF0121D1
:40064000012000F05DF962B600F016FF0A2001F02DFB01F03FFC01F03FFD01F0C3FD002001F064FD002001F0E7FD01F0CDFF02F057F8664802F0A4F801F012FC01F04CFBD1
:4006800001F042FCC82001F0DBFBC82001F0D0FC002000F071F90021002000F031F900F081FA5B4B00221A701923FB61FB69002B01DA0023FB61FB69642B01DD6423FB61F0
:4006C0004FF00003FB604FF000033B614FF000037B614FF47A7001F0E9FA6FF00901642000F068F9282001F0E1FA002000F044F9484B1B6844F61F62934201DD012200E03A
:400700000022454B1A70444B1B78DBB2002B0DD0002000F031F90121012000F0F1F83C4B00221A70082001F0C1FA6EE000237B8100233B810023FB80BA1D07F1080107F1AF
:400740000A031846FFF77CFD314B1B78DBB2012B04D02F4B1B78DBB2022B0BD12F4B1B78002B07D12A4B1B78DAB22C4B1A702C4B0D221A80264B1B78DBB2002B09D1274B73
:400780001B78002B05D0254B00221A70244B00221A801F4B1B78DBB2012B04D01C4B1B78DBB2022B22D11E4B1B88002B06D01C4B1B88013B9AB21A4B1A8017E0144800F04D
:4007C00011FA134B1B78DBB2002B0BD14FF00003FB604FF000033B614FF000037B610F4B00221A70082001F061FA0EE079893A89FB8807F10C00FFF7DFFDB861B969F869AE
:4008000000F0D8F8082001F051FA71E7850000007A81FF1F7C81FF1F7B81FF1F8281FF1F8081FF1F80B586B000AF0346FB7140F6FF73FB820023BB8200F036FE00233B61F2
:4008400015E0FB799BB2184600F03AFE0346FB81FA89FB8A9A4201D2FB89FB82FA89BB8A9A4201D9FB89BB823B6901333B613B6940F2A3629342E4DD00F01CFEBA8AFB8AC8
:40088000D31A9BB218461837BD4680BD80B483B000AF78607B68642B01DD642307E07B6813F1640F02DA6FF0630300E07B6818460C37BD4680BC704780B483B000AF786022
:4008C0007B6813F1640F02DA6FF063037B607B68642B01DD64237B607B68C82202FB03F3064A82FB03129211DB17D31A9BB264339BB218460C37BD4680BC70471F85EB51A4
:4009000080B584B000AF03460A46FB711346BB710023FB730A2001F0C9F9FB79002B03D0FB7B43F00103FB73BB79002B03D0FB7B43F00203FB73FB7B184600F0E3FD00BF69
:400940001037BD4680BD00BF80B485B000AF78607B686B2202FB03F3064A82FB03125211DB17D31AFB60FB6818461437BD4680BC704700BF1F85EB5180B582B000AF7860D0
:400980007868FFF783FF78607B685B421846FFF793FF0346DBB2184601F062FA7868FFF78BFF0346DBB2184601F052FB00BF0837BD4680BD80B584B000AF786039607A68A5
:4009C0003B6813441846FFF761FFF8607A683B68D31A1846FFF75AFFB860F868FFF7B4FF03461846FFF752FFF8607B68002B0FDDFB68002B04DDFB680E2B01DC0F23FB60FC
:400A0000BB68002B04DDBB680E2B01DC0F23BB60FB685B421846FFF74FFF0346DBB2184601F01EFAB868FFF747FF0346DBB2184601F00EFB00BF1037BD4680BD80B400AF6F
:400A400000BFBD4680BC704780B400AF034B00221A6000BFBD4680BC704700BF8C81FF1F80B483B000AF00237B6000233B607B68002B02DA7B685B427B603B68002B02DA94
:400A80003B685B423B607A683B681A44044B1B681344034A136000BF0C37BD4680BC70478C81FF1F80B586B000AF1C237B617B695B423B617B69FB603A69FB681344DA0F95
:400AC00013445B10BB60FA683B69D31ADA0F13445B107B607968B868FFF76CFF00BF1837BD4680BD80B586B000AF1F237B617B693B617B695B42FB603A69FB681344DA0F16
:400B000013445B10BB60FA683B69D31ADA0F13445B107B607968B868FFF74CFF00BF1837BD4680BD80B582B000AF7860FFF786FFFFF78AFF7B68002B02D07B6800221A7078
:400B4000134B00221A70134B00221A70124B00221A60124B00221A60114B00221A800020FFF70AFF4FF47A7001F0A0F80020FFF703FF6FF009016420FFF71CFF282001F033
:400B800095F80020FFF7F8FE00BF0837BD4680BD8481FF1F8581FF1F8881FF1F8C81FF1F9081FF1F80B400AF094B00221A70094B00221A70084B00221A60084B00221A60D5
:400BC000074B00221A8000BFBD4680BC704700BF8481FF1F8581FF1F8881FF1F8C81FF1F9081FF1F80B584B000AF78607B68002B03D07B681B78DBB200E00023FB73314BEA
:400C00001B78022B2CD0032B4DD0002B4FD1FB7B012B02D0FB7B022B4DD10020FFF7ACFE00210020FFF76CFE5A2001F03FF8FFF70BFF254AFB7B1370FB7B012B02D1234BDF
:400C40001B6801E0224B1B68224A1360224B00221A60224B00221A801A4B02221A702AE0194B1B78012B02D1FFF71CFF01E0FFF739FFFFF7F5FE194B1B8801339AB2174B0A
:400C80001A80164B1B881C2B03D97868FFF74AFF14E0114B1A680F4B1B689A420DDB094B03221A7009E07868FFF73CFF06E07868FFF738FF02E000BF00E000BF00BF1037AB
:400CC000BD4680BD8481FF1F8581FF1FCC80FF1FD080FF1F8881FF1F8C81FF1F9081FF1F80B582B000AF786039603A680021786802F0BFFA00BF0837BD4680BD80B584B098
:400D000000AFF860B9607A607A68B968F86802F0A5FA00BF1037BD4680BD00BF80B483B000AF0346FB71FEE780B487B000AF7860396000233B6100237B6127E07B699B0041
:400D40007A6813441B68BB60BB68FB73BB6823F0FF03BB6014E03B695B003A6813441B781A46BB68134419463B695B003A6813445B780B703B6901333B61FB7B013BFB7326
:400D8000FB7B002BE7D17B6901337B617B692B2BD4D900BF1C37BD4680BC704780B582B000AF404B04221A803F4B18221A703F4B3A221A803E4B18221A703E4B3B221A80FB
:400DC0003D4B18221A703D4B81221A803C4B18221A703C4B00221A803B4B1B221A703B4B45F6BF521A803A4B19221A70394B06221A70394B52221A70384B394A1278D2B285
:400E00001A70384B40F619121A80374B41F251221A800023FB7019237B6014E0FB785B00DAB2324B1B78DBB203F00103DBB21343DBB203F00303FB704FF4F07001F010FDEC
:400E40007B68013B7B607B68002B02D0FB78032BE4D17B68002B02D10320FFF75FFF244B4FF480721A80224B07221A70214B00221A70214B48221A701D4B00221A701F4B96
:400E800000221A701E4B02221A701E4A1D4B1B78DBB243F03F03DBB2137000BF0837BD4680BD00BF80400040824000408440004086400040884000408A4000408C400040D3
:400EC0008E400040904000409240004094400040964000400043004000420040A14600400F010049224200402042004025420040044000400640004008400040094000400B
:400F000001400040A243004080B582B000AF244B1B78FB71234B1B78BB71234B1B787B71224AFB7903F00703DBB21370204AFB791B09DBB213701B4ABB7943F00303DBB20F
:400F40001370194A7B7943F00303DBB21370194BE0221A70184B34221A70184B40221A70174B40221A70174BE0221A70164B47221A70164B20221A70154B40221A700A2099
:400F800000F0B6FE084A7B791370064ABB791370104B44221A7000BF0837BD4680BD00BFCF010049F8460040F94600406E5800406F5800400D5100401D5100400959004064
:400FC0000B590040005B0040285B00402B5B0040585B00407658004080B586B000AF72B6584B61221A70FFF7D9FE564B01221A70554A554B1B78DBB243F00403DBB2137072
:401000000023FB7513E0FA7D13465B0013445B004E4A13443B613B691A683B699B889BB219461046FFF75CFEFB7D0133FB75FB7D062BE8D90023FB751CE0FA7D13469B0003
:4010400013445B00424A1344FB60FB681B68BB60FB685B687B60FB681A7A5B7A1B0213437B807B881A467968B868FFF747FEFB7D0133FB75FB7D002BDFD036494FF09040A9
:40108000FFF752FE04213448FFF72AFE042233493348FFF733FE334B334A1A60334B324A1A60334A324B1B78DBB243F00203DBB21370304A2F4B1B78DBB243F00203DBB2C3
:4010C00013702D4A2C4B1B78DBB243F04003DBB213702A4A294B1B78DBB243F01003DBB21370082226492748FFF708FE0A2226492648FFF703FE0A2225492648FFF7FEFD7E
:40110000082225492548FFF7F9FD0A2224492548FFF7F4FD082224492448FFF7EFFD244A234B1B78DBB243F00803DBB21370FFF7EBFE0E2210491F48FFF7E0FD00BF1837F2
:40114000BD4680BD00480040E846004090320000BC320000B000004800760040FC0F0048087600405804014004040444D81401400350014013500140A0430040C243004010
:40118000C00F004802510040C80F0048C0510040D40F0048F0510040E00F004812510040E80F004820510040F40F00483251004022430040B043004080B500AF02F022F8C9
:4011C00003461B680C2B00D1FEE7FEE780B586B000AF224B7B61224B3B61204B7B6135E03B691B68FB603B695B68BB603B699B683B6000237B600CE0FB681A68BB681A60D7
:40120000BB680433BB60FB680433FB607B6804337B607A683B689A42EED13B69DB683B6000237B6008E0BB6800221A60BB680433BB607B6804337B607A683B689A42F2D17A
:401240003B6910333B617B69013B7B617B69002BC6D101F0DDFFFFF7EFF9FEE701000000EC32000080B582B000AF194B194A1A60194A194B1B6843F40073136000237B60DE
:401280000FE07B68032B04D8144A7B6852F8233000E0134B13497A6841F822307B6801337B607B682F2BECD90F4B1B78DAB20F4B1A700F4B0B4A1A60FFF78EFE00F0CEFAB9
:4012C0000C4B00221A6000BF0837BD4680BD00BF0CED00E00004FA0514ED00E000000000B91100000080FF1FBC760040C480FF1F08ED00E0C080FF1F80B500AF41F6FF7345
:401300004FF480420121022000F020FA03461A460A4B1A7041F6FF7341F6FF7201210C2000F046FA03461A46054B1A70054800F071FA002000F080FA00BF80BD9881FF1F1B
:401340009981FF1FF914000080B582B000AF414B1B78184600F0F6FA3F4B1B78184600F0F1FA3E4B1B78FF2B05D100F0F7FB03461A463A4B1A70394B1878384B1A78062357
:401380000C2100F019FC354B1B78354A92B245F6A231184600F050FC2E4B1A782F4B1B781946104600F06CFB2E4B1B78FF2B05D100F0D4FB03461A462A4B1A70294B1878E2
:4013C000284B1A7807230C2100F0F6FB254B1B78234A91B2244A92B2184600F02DFC1E4B1A78204B1B781946104600F049FB194B1B780121184600F05FFA174B1B7801211B
:40140000184600F059FA01F033FA0346FB71174A164B1B78DBB243F02003DBB21370FB79184601F029FA124A114B1B78DBB243F00103DBB213700E4A0D4B1B78DBB243F0E8
:401440000203DBB213700B4B01221A6000BF0837BD4680BD9881FF1F9981FF1FD480FF1F9C81FF1FD580FF1FB081FF1F996500407C64004080E200E080B500AF084B1B68EE
:40148000002B04D1FFF738FF054B01221A6000F049F8FFF759FF034B1B7800BF80BD00BF9481FF1F6F64004080B500AF00F0EEF800BF80BD80B500AF00F0F8F800BF80BD3B
:4014C00080B483B000AF0346FB80FB88C3F10503074A32F913309AB2064B1B881BB29BB2D31A9BB21BB218460C37BD4680BC7047B081FF1FBE81FF1F80B400AF00BFBD46CB
:4015000080BC704780B483B000AF0346FB71044AFB79137000BF0C37BD4680BC704700BF7A65004080B500AF064B1B78002B04D100F00AF8034B01221A7000F01BF800BF5B
:4015400080BD00BFA881FF1F80B500AF074A074B1B78DBB243F00603DBB213700C2000F06BF8034B00221A8000BF80BD09590040C481FF1F80B582B000AF01F079F90346E9
:40158000FB71254A244B1B78DBB243F00203DBB21370224A214B1B78DBB243F00203DBB213701F4B1B78BB71BB7943F00203BB71BB7943F00103BB71194ABB791370194B63
:4015C00018221A70184A184B1B78DBB243F04003DBB21370144A144B1B78DBB223F00303DBB21370114BC8221A70114B02221A70104A104B1B78DBB243F00803DBB21370B9
:401600000A2000F075FBFB79184601F035F900BF0837BD4680BD00BFAB430040BB4300400B5900400E5900400D59004008590040164600402F5B004080B584B000AF03466D
:40164000FB71FB790A2B07D00C2B02D0082B06D008E0C223FB730BE08223FB7308E04223FB7305E0C223FB73002000F013FB00BF054AFB7B1370FB79184600F027F800BF7B
:401680001037BD4680BD00BF0A59004080B400AF054A054B1B78DBB243F00103DBB2137000BFBD4680BC70470859004080B400AF054A054B1B78DBB223F00103DBB2137039
:4016C00000BFBD4680BC70470859004080B584B000AF0346FB71FB790A2B08D00C2B02D0082B08D00BE04FF48053FB600DE04FF48063FB6009E04FF48073FB6005E00023E6
:40170000FB60002000F0C6FA00BF0C4B00221A80FB6842F2107202FB03F303F6C413084A82FB0312D212DB17D31A064A1360064B00221A8000BF1037BD4680BDBC81FF1FB8
:40174000AD8BDB68C081FF1FBE81FF1F90B585B002AF0446084611461A462346FB710346BB710B46BB8013467B80104B01221A700E4B1878BA79F97900230193002300938B
:40178000012300F09BF9094B1B787A88B988184600F03AF9054B1B780221184600F002F9024B1B7818460C37BD4690BDD680FF1F90B585B002AF0446084611461A4623465F
:4017C000FB710346BB710B46BB8013467B80104B00221A700E4B1878BA79F9790023019300230093002300F069F9094B1B787A88B988184600F008F9054B1B7802211846D4
:4018000000F0D0F8024B1B7818460C37BD4690BDD780FF1F80B485B000AF7860054B1B68FB60FB6840337A681A6000BF1437BD4680BC704708ED00E080B483B000AF034626
:40184000FB71054AFB795B01DBB2137000BF0C37BD4680BC704700BF00E400E080B483B000AF134B7F221A70124B80221A707F23FB710CE0FB79DB0003F1804303F5F043FF
:40188000FA79013AD2B21A70FB79013BFB71FB79002BEFD1FB79DB0003F1804303F5F04300221A7000BF0C37BD4680BC704700BFD980FF1FD880FF1F80B485B000AF03460F
:4018C0000A46FB711346BB710123FB60FB79172B2FD8BB79002B0ED0FB791A01184B1344FA791101164A0A441278D2B242F02002D2B21A700DE0FB791A01114B1344FA79A0
:4019000011010F4A0A441278D2B222F02002D2B21A70FB791A010A4B1344FA791101084A0A441278D2B242F00102D2B21A700023FB60FB6818461437BD4680BC704700BFAE
:401940001070004080B485B000AF0346FB710123FB60FB79172B1DD8FB791A01104B1344FA7911010E4A0A441279D2B242F00402D2B21A71FB791A01094B1344FA7911012F
:40198000074A0A441278D2B242F00102D2B21A700023FB60FB6818461437BD4680BC70471070004080B485B000AF03460A46FB711346BB710123FB60FB79172B1BD8FB79B9
:4019C0001A01104B13441B78DBB223F00E03FB72FB791A010B4B1344BA795200D2B252B202F00E0251B297F90B200A4352B2D2B21A700023FB60FB6818461437BD4680BC38
:401A0000704700BF1070004080B485B000AF0346FB710B46BB8013467B800123FB60BB8841F6FF72934202D14FF40053BB807B8841F6FF72934202D14FF400537B80FB7988
:401A4000172B17D8FB79DB0003F1804303F5EC430433BB60BB68BA881A80FB79DB0003F1804303F5EC430633BB60BB687A881A800023FB60FB6818461437BD4680BC7047F7
:401A800080B485B000AF03460A46FB711346BB710123FB60FB79172B07D8FB791A01064B1344BA795A720023FB60FB6818461437BD4680BC704700BF1070004090B484B0C3
:401AC00000AF0446084611461A462346FB710346BB710B467B7113463B710123FB60FB79172B34D8FB79DB0003F1804303F5EC43BA7902F07F02D1B27A79D201D2B20A432E
:401B0000D2B21A70FB79DB0003F1804303F5EC433A7E1201D1B23A7902F00F02D2B20A43D2B25A70FB79DB0003F1804303F5EC433A7F02F00F02D2B29A70FB79DB0003F18D
:401B4000804303F5EC430022DA700023FB60FB6818461037BD4690BC704700BF80B582B000AFFF23FB7100F083FE0346BB71104B1B78182B12D90F4B1B78FB710C4B1B78DB
:401B8000013BDAB20A4B1A70FB79DB0003F1804303F5F0431B78DAB2064B1A70BB79184600F06AFEFB7918460837BD4680BD00BFD880FF1FD980FF1F90B484B000AF0446FB
:401BC000084611461A462346FB710346BB800B46BB711346FB700123FB6097F90730002B23DBBB8823F47F6323F00F039BB2002B1BD1FB79DB0003F1804303F5F043BB60C6
:401C0000BB68BA881A80FB79DB0003F1804303F5F043BA799A70FB79DB0003F1804303F5F043FA78DA700023FB60FB6818461037BD4690BC704700BF80B485B000AF03469E
:401C4000FB710B46BB8013467B800123FB6097F90730002B17DBFB79DB0003F1804303F5F0430433BB60BB68BA881A80FB79DB0003F1804303F5F0430633BB60BB687A8889
:401C80001A800023FB60FB6818461437BD4680BC704700BF80B483B000AF0346FB7101BE00BF0C37BD4680BC704700BF80B582B000AF786008E00C4B1B68184600F0D0FD3F
:401CC0007B68A3F500437B607B68B3F5004FF2D8064B1B687A6802FB03F3184600F0C0FD00BF0837BD4680BDEC80FF1FE480FF1F80B582B000AF0346FB80FB88054A127873
:401D000002FB03F3184600F0ABFD00BF0837BD4680BD00BFE880FF1F80B500AF064B1B78002B04D100F00AF8034B01221A7000F063F800BF80BD00BFA981FF1F80B582B0CD
:401D400000AF284A274B1B78DBB243F00203DBB21370254B1B78DBB223F07003FB71224AFB7943F01003DBB21370204A1F4B1B78DBB223F03003DBB213701C4A1B4B1B7807
:401D8000DBB243F03003DBB21370184A174B1B78DBB223F00F03DBB21370144A134B1B78DBB243F00F03DBB21370FF2000F048F8002000F055F8002000F062F80C4A0C4B13
:401DC0001B78DBB243F00103DBB21370094A094B1B78DBB243F00103DBB2137000BF0837BD4680BD004F0040024F00400B4F0040A3430040014F004080B400AF0D4A0D4B2E
:401E00001B78DBB243F00103DBB213700A4A0A4B1B78DBB243F00103DBB21370074A074B1B78DBB243F00103DBB2137000BFBD4680BC7047A3430040B3430040004F004081
:401E400080B483B000AF0346FB71044BFA7992B21A8000BF0C37BD4680BC7047044F004080B483B000AF0346FB71044BFA7992B21A8000BF0C37BD4680BC7047064F004074
:401E800080B483B000AF0346FB71044AFB79137000BF0C37BD4680BC704700BF034F004080B400AF094A094B1B78DBB243F00403DBB21370064A064B1B78DBB243F00403DA
:401EC000DBB2137000BFBD4680BC7047A2430040B243004080B400AF094A094B1B78DBB243F00103DBB21370064A064B1B78DBB243F00103DBB2137000BFBD4680BC704715
:401F0000A2430040B243004080B500AF064B1B78002B04D100F00AF8034B01221A7000F063F800BF80BD00BFAA81FF1F80B582B000AF284A274B1B78DBB243F00203DBB264
:401F40001370254B1B78DBB223F07003FB71224AFB7943F01003DBB21370204A1F4B1B78DBB223F03003DBB213701C4A1B4B1B78DBB243F03003DBB21370184A174B1B7823
:401F8000DBB223F00F03DBB21370144A134B1B78DBB243F00F03DBB21370FF2000F048F8002000F055F8002000F062F80C4A0C4B1B78DBB243F00203DBB21370094A094B5C
:401FC0001B78DBB243F00103DBB2137000BF0837BD4680BD0C4F00400E4F0040174F0040A34300400D4F004080B400AF0D4A0D4B1B78DBB243F00203DBB213700A4A0A4BF9
:402000001B78DBB243F00203DBB21370074A074B1B78DBB243F00103DBB2137000BFBD4680BC7047A3430040B34300400C4F004080B483B000AF0346FB71044BFA7992B2B1
:402040001A8000BF0C37BD4680BC7047104F004080B483B000AF0346FB71044BFA7992B21A8000BF0C37BD4680BC7047124F004080B483B000AF0346FB71044AFB7913701B
:4020800000BF0C37BD4680BC704700BF0F4F004080B400AF00BFBD4680BC704780B582B000AF0F2000F06AF800F05AF800F0E0FB0346FB71074A074B1B78DBB243F01003D1
:4020C000DBB21370FB79184600F0D6FB00BF0837BD4680BD9064004080B500AF00F034F94FF4004000F05EF9064B1B78002B04D1FFF7CEFF034B01221A70FFF7CFFF00BFDB
:4021000080BD00BFAB81FF1F80B582B000AF00F059F90346FB80FB88A3F500439BB2BB80B7F9043018460837BD4680BD80B584B000AF0346FB80B7F90630002B04DBFB8847
:40214000A3F50043FB8103E0FB88A3F50043FB81FB89184600F026F900BF1037BD4680BD80B400AF044B1B78DBB203F00F03DBB21846BD4680BC70476064004080B483B071
:4021800000AF0346FB71044AFB79137000BF0C37BD4680BC704700BF8064004080B400AF00BFBD4680BC704780B582B000AF0F2000F06AF800F05AF800F05AFB0346FB7130
:4021C000074A074B1B78DBB243F01003DBB21370FB79184600F050FB00BF0837BD4680BD9665004080B500AF00F086F94FF4004000F0B0F9064B1B78002B04D1FFF7CEFF2A
:40220000034B01221A70FFF7CFFF00BF80BD00BFAC81FF1F80B582B000AF00F0ABF90346FB80FB88A3F500439BB2BB80B7F9043018460837BD4680BD80B584B000AF034663
:40224000FB80B7F90630002B04DBFB88A3F50043FB8103E0FB88A3F50043FB81FB89184600F078F900BF1037BD4680BD80B400AF044B1B78DBB203F00F03DBB21846BD468E
:4022800080BC70476665004080B483B000AF0346FB71044AFB79137000BF0C37BD4680BC704700BF8665004080B582B000AF1C4B1B78DBB223F00703FB71194AFB791370AE
:4022C000174B1B78DBB223F00303FB71144AFB79137000F0B3F84FF4004000F08FF84FF4004000F05FF8002000F040F800F04EF84FF4004000F092F800F0BAFA0346BB718F
:40230000084A084B1B78DBB243F01003DBB21370BB79184600F0B0FA00BF0837BD4680BD766500409464004080B400AF054A054B1B78DBB263F07F03DBB2137000BFBD467C
:4023400080BC70477665004080B500AF064B1B78002B04D1FFF7A8FF034B01221A70FFF7E3FF00BF80BD00BFAD81FF1F80B483B000AF0346FB71044AFB79137000BF0C37FE
:40238000BD4680BC704700BF8464004080B400AF034B1B78DBB21846BD4680BC704700BF6464004080B483B000AF0346FB80044AFB88138000BF0C37BD4680BC704700BFDF
:4023C0000C68004080B400AF044B1B78044B1B889BB21846BD4680BC704700BF066400408C68004080B400AF034B1B889BB21846BD4680BC704700BF8C68004080B483B065
:4024000000AF0346FB80044AFB88138000BF0C37BD4680BC704700BF4C68004080B483B000AF0346FB80044AFB88138000BF0C37BD4680BC704700BF6C68004080B500AF2D
:4024400001E0FFF7CFFFFFF7A1FF034603F04003002BF6D100BF80BD80B582B000AF1C4B1B78DBB223F00703FB71194AFB791370174B1B78DBB223F00303FB71144AFB795B
:40248000137000F0B3F84FF4004000F08FF84FF4004000F05FF8002000F040F800F04EF84FF4004000F092F800F0E2F90346BB71084A084B1B78DBB243F01003DBB2137064
:4024C000BB79184600F0D8F900BF0837BD4680BD746400409565004080B400AF054A054B1B78DBB263F07F03DBB2137000BFBD4680BC70477464004080B500AF064B1B78DD
:40250000002B04D1FFF7A8FF034B01221A70FFF7E3FF00BF80BD00BFAE81FF1F80B483B000AF0346FB71044AFB79137000BF0C37BD4680BC704700BF8565004080B400AF4F
:40254000034B1B78DBB21846BD4680BC704700BF6565004080B483B000AF0346FB80044AFB88138000BF0C37BD4680BC704700BF086A004080B400AF044B1B78044B1B8872
:402580009BB21846BD4680BC704700BF04650040886A004080B400AF034B1B889BB21846BD4680BC704700BF886A004080B483B000AF0346FB80044AFB88138000BF0C373A
:4025C000BD4680BC704700BF486A004080B483B000AF0346FB80044AFB88138000BF0C37BD4680BC704700BF686A004080B500AF01E0FFF7CFFFFFF7A1FF034603F040038F
:40260000002BF6D100BF80BD80B400AF094A094B1B78DBB243F02003DBB21370064A064B1B78DBB243F02003DBB2137000BFBD4680BC7047A2430040B243004080B500AF82
:40264000214A214B1B78DBB203F00103DBB213701E4A1E4B1B78DBB223F00303DBB213701B4A1B4B1B78DBB223F03003DBB21370174A174B1B78DBB243F03003DBB21370A8
:40268000134A134B1B78DBB223F00F03DBB213700F4A0F4B1B78DBB243F00F03DBB213700C4A0C4B1B78DBB243F00103DBB21370042000F063F8042000F072F8082000F0C9
:4026C00041F800BF80BD00BF184F00401A4F0040234F0040194F004080B400AF0D4A0D4B1B78DBB243F00403DBB213700A4A0A4B1B78DBB243F00403DBB21370074A074B8A
:402700001B78DBB243F00103DBB2137000BFBD4680BC7047A3430040B3430040184F004080B500AF064B1B78002B04D1FFF786FF034B01221A70FFF7CFFF00BF80BD00BFBD
:40274000AF81FF1F80B483B000AF0346FB71044AFB79137000BF0C37BD4680BC704700BF1B4F004080B400AF034B1B78DBB21846BD4680BC704700BF1B4F004080B485B023
:4027800000AF0346FB80FB88FB81044AFB89138000BF1437BD4680BC704700BF1C4F004080B483B000AF0346FB80044AFB88138000BF0C37BD4680BC704700BF1E4F004036
:4027C00080B582B000AF786000F03CF8786800F009F8072000F018F800F028F800BF0837BD4680BD80B485B000AF7860054B1B68FB60FB688C337A681A6000BF1437BD46D8
:4028000080BC704708ED00E080B483B000AF0346FB71054AFB795B01DBB2137000BF0C37BD4680BC704700BF13E400E080B400AF034B4FF400221A6000BFBD4680BC704783
:4028400000E100E080B400AF034B4FF400221A6000BFBD4680BC704780E100E0000000000230800803D000BF01380046FCD17047EFF3108072B6704780F31088704700BF70
:4028800080F0004002E000BF81F0004142001FBF5FEA410392EA030F7FEA226C7FEA236C6AD04FEA1262D2EB1363C1BFD218414048404140B8BF5B42192B88BF704710F087
:4028C000004F40F4000020F07F4018BF404211F0004F41F4000121F07F4118BF494292EA030F3FD0A2F1010241FA03FC10EB0C00C3F1200301FA03F100F0004302D54942A5
:4029000060EB4000B0F5000F13D3B0F1807F06D340084FEA310102F10102FE2A51D2B1F1004F40EBC25008BF20F0010040EA03007047490040EB000010F4000FA2F10102FE
:40294000EDD1B0FA80FCACF1080CB2EB0C0200FA0CF0AABF00EBC25052421843BCBFD0401843704792F0000F81F4000106BF80F400000132013BB5E74FEA41037FEA226C70
:4029800018BF7FEA236C21D092EA030F04D092F0000F08BF0846704790EA010F1CBF0020704712F07F4F04D1400028BF40F00040704712F100723CBF00F50000704700F05D
:4029C000004343F0FE4040F4000070477FEA226216BF08467FEA23630146420206BF5FEA412390EA010F40F4800070474FF0000304E000BF10F0004348BF40425FEA000C41
:402A000008BF704743F0964301464FF000001CE050EA010208BF70474FF000030AE000BF50EA010208BF704711F0004302D5404261EB41015FEA010C02BF844601460020B6
:402A400043F0B64308BFA3F18053A3F50003BCFA8CF2083AA3EBC25310DB01FA02FC634400FA02FCC2F12002BCF1004F20FA02F243EB020008BF20F00100704702F1200212
:402A800001FA02FCC2F1200250EA4C0021FA02F243EB020008BF20EADC7070474FF0FF0C1CEAD0521EBF1CEAD15392EA0C0F93EA0C0F6FD01A4480EA010C400218BF5FEA91
:402AC00041211ED04FF0006343EA501043EA5111A0FB01310CF00040B1F5000F3EBF490041EAD3715B0040EA010062F17F02FD2A1DD8B3F1004F40EBC25008BF20F00100D7
:402B0000704790F0000F0CF0004C08BF49024CEA502040EA51207F3AC2BFD2F1FF0340EAC250704740F400004FF00003013A5DDC12F1190FDCBF00F000407047C2F1000276
:402B4000410021FA02F1C2F1200200FA02FC5FEA310040F1000053EA4C0308BF20EADC70704792F0000F00F0004C02BF400010F4000F013AF9D040EA0C0093F0000F01F090
:402B8000004C02BF490011F4000F013BF9D041EA0C018FE70CEAD15392EA0C0F18BF93EA0C0F0AD030F0004C18BF31F0004CD8D180EA010000F00040704790F0000F17BFEE
:402BC00090F0004F084691F0000F91F0004F14D092EA0C0F01D142020FD193EA0C0F03D14B0218BF084608D180EA010000F0004040F0FE4040F40000704740F0FE4040F49A
:402C0000400070474FF0FF0C1CEAD0521EBF1CEAD15392EA0C0F93EA0C0F69D0A2EB030280EA010C49024FEA402037D04FF0805343EA111143EA10130CF000408B4238BF17
:402C40005B0042F17D024FF4000C8B4224BF5B1A40EA0C00B3EB510F24BFA3EB510340EA5C00B3EB910F24BFA3EB910340EA9C00B3EBD10F24BFA3EBD10340EADC001B0166
:402C800018BF5FEA1C1CE0D1FD2A3FF650AF8B4240EBC25008BF20F0010070470CF0004C4CEA50207F32C2BFD2F1FF0340EAC250704740F400004FF00003013A37E792F0EE
:402CC000000F00F0004C02BF400010F4000F013AF9D040EA0C0093F0000F01F0004C02BF490011F4000F013BF9D041EA0C0195E70CEAD15392EA0C0F08D142027FF47DAF28
:402D000093EA0C0F7FF470AF084676E793EA0C0F04D14B023FF44CAF08466EE730F0004C18BF31F0004CCAD130F000427FF45CAF31F000437FF43CAF5FE700BF4FF0FF3CC7
:402D400006E000BF4FF0010C02E000BF4FF0010C4DF804CD4FEA40024FEA41037FEA226C18BF7FEA236C11D001B052EA530C18BF90EA010F58BFB2EB030088BFC81738BF3F
:402D80006FEAE17018BF40F0010070477FEA226C02D15FEA402C05D17FEA236CE4D15FEA412CE1D05DF8040B704700BF844608466146FFE70FB5FFF7C9FF002848BF10F110
:402DC000000F0FBD4DF808EDFFF7F4FF0CBF012000205DF808FB00BF4DF808EDFFF7EAFF34BF012000205DF808FB00BF4DF808EDFFF7E0FF94BF012000205DF808FB00BF94
:402E00004DF808EDFFF7D2FF94BF012000205DF808FB00BF4DF808EDFFF7C8FF34BF012000205DF808FB00BF4FEA4002B2F1FE4F0FD34FF09E03B3EB12620DD94FEA002323
:402E400043F0004310F0004F23FA02F018BF404270474FF00000704712F1610F01D1420205D110F0004008BF6FF0004070474FF0000070477BB972B90029BEBF00204FF062
:402E8000004106E008BF00281CBF6FF000414FF0FF3000F0B5B9ADF1080C6DE904CE002909DB002B1ADB00F035F8DDF804E0DDE9022304B07047404261EB4101002B1BDB51
:402EC00000F028F8DDF804E0DDE9022304B0404261EB4101524263EB43037047524263EB430300F017F8DDF804E0DDE9022304B0404261EB41017047524263EB430300F01D
:402F000009F8DDF804E0DDE9022304B0524263EB430370472DE9F04F8C460C460546099E002B4FD18A4217466BD9B2FA82FEBEF1000F0BD0CEF1200520FA05F501FA0EF37D
:402F400045EA030C02FA0EF700FA0EF5390CBCFBF1F0BAB201FB10C300FB02F84FEA154C4CEA0344A04509D9E41900F1FF3380F02881A04540F2258102383C44C8EB0404BF
:402F8000B4FBF1F301FB134C03FB02F2ACB244EA0C418A4209D9C91903F1FF3480F00F818A4240F20C81023B39448A1A43EA00400021002E63D022FA0EF2002386E80C0010
:402FC000BDE8F08F8B4207D9002E56D0002186E811000846BDE8F08FB3FA83F1002940F09380A34202D3824200F2FE80851A64EB03039C460120002E41D086E82010BDE8A6
:40300000F08F12B90127B7FBF2F7B7FA87FEBEF1000F36D1E41B4FEA17481FFA87F90121B4FBF8F308FB134409FB03F24FEA154C4CEA0444A24207D9E41903F1FF3002D279
:40304000A24200F2D3800346A41AB4FBF8F008FB104809FB00F9ACB244EA0842914507D9D21900F1FF3402D2914500F2BA802046C9EB020240EA03409BE731463046BDE821
:40308000F08F07FA0EF7CEF1200C24FA0CF34FEA1748B3FBF8FA1FFA87F908FB1A3520FA0CFC04FA0EF40AFB09FB4CEA040C4FEA1C4242EA05439B4500FA0EF50AD9DB1930
:4030C0000AF1FF3280F08B809B4540F28880AAF1020A3B44CBEB0303B3FBF8F008FB103300FB09F41FFA8CFC4CEA03439C4207D9DB1900F1FF326ED29C426CD902383B444C
:403100001C1B40EA0A418BE7C1F1200E8B4022FA0EFC4CEA030C24FA0EF74FEA1C49B7FBF9FA1FFA8CF309FB1A7720FA0EF88C400AFB03F548EA04044FEA144848EA074790
:40314000BD4202FA01F200FA01FB09D917EB0C070AF1FF3041D2BD423FD9AAF1020A67447F1BB7FBF9F509FB157705FB03F3A4B244EA0747BB4208D917EB0C0705F1FF3024
:4031800027D2BB4225D9023D674445EA0A40A0FB0289FF1A4F4545464C4614D329D066B3BBEB050367EB040707FA0EFECB40CF404EEA030386E888000021BDE8F08F2346BB
:4031C000F3E61846DAE6B8EB020569EB0C040138E5E70546D9E7104692E78246C0E7924678E702383A4443E7084604E7023B3C442AE7C345E7D33C46D1E73146BDE8F08FC5
:40320000704700BF014B1868704700BF5081FF1F0E4B70B51E460E4C0025E41AA410A54204D056F8253098470135F8E700F04CF8084B094C1E46E41AA4100025A54204D0B0
:4032400056F8253098470135F8E770BDD4320000D4320000D4320000DC32000010B5431E0A44914204D011F8014B03F8014FF8E710BD03460244934202D003F8011BFAE7D5
:4032800070470000000000008CFCFF7F01000000004F0040300040510040300000000140001000140140000800400140000A004C0140000210500140100000000050014086
:4032C000B00F004810004300F8B500BFF8BC08BC9E4670474D00000065120000F8B500BFF8BC08BC9E4670472900000000330000C880FF1F900000007000000000000000F0
:40330000000000005A0000005A000000FFFFFFFF807F0000030000000087930360EA00003C0000000000307500000000000000000000000000000000000000000000000093
:403340000000000000000000C63200000000000000000000000000000000000000000000000000000000000000000000000000000000000000000000000000000000000055
:403380000000000000000000F080FF1F000000000000000000000000000000000000000000000000000000000000000000000000000000000000000000000000000000007F
:4033C00000000000000000000000000000000000000000000000000000000000000000000000000000000000000000000000000000000000000000000000000000000000CD
:40340000000000000000000000000000000000000000000000000000000000000000000000000000000000000000000000000000000000000000000000000000000000008C
:40344000000000000000000000000000000000000000000000000000000000000000000000000000000000000000000000000000000000000000000000000000000000004C
:40348000000000000000000000000000000000000000000000000000000000000000000000000000000000000000000000000000000000000000000000000000000000000C
:020000040003F7
:0200000480007A
:4000000001450040084F00400B520040015B00400564004003650040450001403101014048020140460301404B04014053050140540601404E070140330801405C0901408F
:40004000520A01404B0B01403B0C0140560D0140400E01403C0F01405D1401404A1501404A1601404C170140191801404F190140401A01404D1B01400E40014017410140E7
:40008000134201400F4301400344014014450140064601400A4701401448014010490140114C0140084D014005500140035101407E0201200A4B0D20164B1950224B254081
:4000C0002E4B004001800814091010081108181819286013611B7C402F84800F8338846F880F8972856F860F890503010501060208050C010E040F0110601101121014386D
:40010000150118601A081D011E052040220829012A782C582E20307832023301340136043E50540F580459045B045C105F01810D833089148B298D3D8E08920793409477E9
:40014000970298C09A249CC19E129F80A0B7A240A531A70CA884A91CAA10AC01AD29AEF2AF14B180B340B4F0B503B60FB73CD804D904DF01001402010480080809200A6240
:400180000B100D200F9210011192151016801740183019901A401B031D201F902208255026052A112BC02F1A300A328035403601370439823A083D923E805809599081409A
:4001C00088028C08C087C2FFC4DBCA74CCDBCEBBD60FE201E604020409300BC90C010DFD0E020F021402160118011A0A1C011D941E021F60230F25CF2610273029732D9EDE
:400200002F60300831FF3203340436103A083F015608580459045B045D905F0181018302870489048C188D028F019108940D9A209C039F08A003A101A302A418A901AB02B6
:40024000AC14B020B103B21CB308B401B602B704B8A8BB02BE10BF44D418D604D804D904DB04DD30DF0103020441084009200A200B020D080E0A10901180162019211A2254
:400280001B081C411D382246248029112C102F9A3040310236803740382539403A043C203D904D404E0258025D805F1060806309654066207D027E80808083048A089020D1
:4002C00093219484951296229D409E589F44A150A20DA3C2A501A708AB01B250B680C091C2E7C42DCAF5CC19CE3FD631D83DE686EA1904A3051C065C0B020D2C0F1010FE1B
:400300001201133C140E153016F01708187F19301B041F402301260128C529202A3A2B042C962E6830FF3101333C3502374038083E054001460449FF4A074BFF4C404D209D
:400340004EF04F0550085280540F580459045A045B045D035F05604061A86240632089968B688DFE8F019B019D0E9FF0A5A3A75CA97FADC5AF3AB5FFBF10D608D804D9046B
:40038000DB04DC01DD90DF010004032006080701080809080A440B480C200E1010101202131015021610174018801A20214222082314270428482F1A3140320A33203680D0
:4003C00037203A203B483C203D804180451047205010524059015A885B105C8061046220654070027B088082821083108C109288932095029702984099209C029E5C9F04B1
:40040000A158A202A34AA490A502A680AF10B180B208C0C4C26EC4B7CA75CC3FCE3ED008D61FD816DE04E201E601EA10EC80050C0B030D080F041101170C2F013104330819
:40044000350137023F154036410549FF4AFF4BFF4DA04F0150185608580459045A045B045C015D905F016040628064406540668068406A806C406D206E80846C8603888014
:400480008C058E0A905F9403960C9837A680A86AAA05AE80B00FB470B680B820BE40C036C105C50EC6C2C734C83DC9FFCAFFCBFFCDAFCE07CF01D018D804D904DA04DC101A
:4004C000DF01E040E280E440E540E680E840EA80EC40ED20EE800004020A060A070109080A440C600D010E8010121318140216101A452440272628022A022E803061334082
:400500003604370239023A083C803D203F044304470449244B404D204FC05080522453015D40658088038A10908091809314940495029644970299209A409C909D059E3C83
:400540009F41A022A118A202A340A490A6A0AA10B180B240B420C0C7C2DEC4A7CA19CCCDCE73D042D23CD610D810E004E602EC04EE010508130219011F0129043304350889
:4005800037033F144062410345EB46C0470E481B49FF4AFF4BFF4EF04F44500C54015604580459045A045B045C915D335F0166C06A406B02800484048C01A203A404AC04FD
:4005C000B004B401B602BE01D602D713D80FD904DB04DC11DD30DF0100040180038004400D090E041282130414041580168119A12680272829102A812F043004330834020E
:4006000035203680384039023A203B013D08442047104C044D114F085504572059015D015E605F086740680669046A20702071447A507B207C407E017FC080808740890133
:400640008A048C408E92900C924293049480958C978198209A089B149D649E02A140A242A4A6A508A720AA49B220B310B4C0B710C08DC270C4DDCA2DCCB2CE4DD060D220EA
:40068000D6F1D880DE01E220E620EA20EC84EE100104021103080408057C078208110B0C0C070DFF0E301037113C13C114061530180219101C311D041E06200423C3240824
:4006C00025CF2730280629082A312C082D20301031B0322033703407353F360838083A203B22580459045C335F01850A86098754881889538A058B0C8E068F0894189603C7
:4007000099809B15A120A503A602A714A816A953AA01AB04B120B207B310B418B50FB7C0B820B980BA08BB20BE10BF05D804D904DC33DF01001802020380071908940B80EE
:400740000E201002110412441628172018041AA41BD01E201F14220623042408255026092709280829402A402B902C802F2430343104328237103A053B943DA03E085C20D6
:400780005E2079027B40824083018D018F109010920293109480958E962C978998089A019B249D219E029F08A2C0A548B010B180B308B420B540B601C0EFC22FC46FCAEF1C
:4007C000CC2FCE7FE440E820EA10030109010C030D01130114031E032003230124032501280229012A012C012E0230013501360252035302580459045B045C115D105F0109
:4008000082028503860187048B0C9111932297409A049B409F11A103A308A703AA06AB22AC02AE04B140B207B330B50FBB20BE04BF01D608D804D904DB04DC31DD90DF0158
:400840000008025003090480084009280A020B400C040D080F211022112012051301145015A018101C801E0220482310240828082A062C602F0830023104329037013880DB
:4008800039443A103B403F6159405B106008613062C068026E806F0479017A408040831088C089608C0491209202941095CF960C978999049B219C849D119E029F08A110F6
:4008C000A402A5C0A680A708AA10B110B201B301B480B540C08FC2AFC4FFCAE7CC8FCEB6D60CD80CE204E602EA58ECA007011A012A01310132013E0440244105420644036A
:40090000450E470C481149FF4AFF4BFF4C624DA04EF04F41500C580459045A045C115D035F016640670269106A306B106D106E106F12838085C0873089038B0C8FC0933087
:400940009510976099089B029D049F01A10FA50FA910ABE0AD05AF0AB3F0B50FBB08D401D804D904DB0FDC31DD10DF010309070508060A0A0D800F40100911401301140421
:4009800016811A102040220123402514272028052A802B802C022D042E022F043180351136803708384039283A013B013DA83E01401241414204438049044A084B804E0CCB
:4009C00050085C807D01830188048D408F04C0C3C29FC4DBCAFDCCF8CEFFD007D20CD610DE80E69408040D010E010F06150217011D011F02220623082D012F0230043104C0
:400A000033033402360137083B083E014012410449FF4AFF4BFF4DA04F015018580459045A045F016040628064406540668068406A806C406D206E808104850288018C0138
:400A400090019102930494019A019C019D08A401AD02AF09B101B302B508B601B704B908BF54C012C105C52CC640C73EC83BC9FFCAFFCBFFCDAFCE07CF01D018D40FD80419
:400A8000D904DA04DB04DC01DF05E040E280E440E540E680E840EA80EC40ED20EE80004001A0060807010C500D040E821080161019611F80206021082301275A29822F0284
:400AC00031483502374039803E043F014002410142014310440247104D024E014F045402562457025D105F4A660467047E04850486408780881089128E019182920F9340B7
:400B00009A189B019C409D039E20A080A412A640AA08C0C3C2F0C428CA19CC9ACEC8D03DD210D6F0D860DE20E209E602E820EC20EE010104020103080430051006080B1079
:400B40000D080E020F04102C11021210163C181C1D041F08283029042A042B092C202D022E04310132023302343C35103601370C39083B803F105280540F580459045B0408
:400B80005F0184CF85208630870489218B028C308EC98F4090FD9202930794949507966098739B109E0FA104A320A708A89EA921AA60AB02AD27B10FB2FFB310B560BE04EE
:400BC000D804D904DF0100040203040405800740080709080A4E0D080E44111013101510160119041C061F082080210122192308254026A42740280529042A012C022F0812
:400C000032153502374038843B103C023D803E203F045C425E045F207680866087408B0190C0918092459314940499809A509B209C409D019EA89F09A080A108A202A45070
:400C4000A6CCB480B540C0B5C27FC4C2CA3FCC97CEFED6F0E008E850EA01EC08EE025608580459045B045C115D905F01820187029701A204A602B001B204B302B402B70104
:400C8000D602D73AD804D904DB0FDC11DD10DF0100080101030A04A0078009080A840D080E041080110413C01440158218A019101A041B0A2148224023012A202B022C408D
:400CC0002F0A3008311032403780382039023B443E243F01450846205B045C8061046402680A6905708073047A408610870889088B10911092029480958A960498209A08FE
:400D00009B049C029D109E20A140A240A304A508A788AB20AF04C0DFC26EC49DCABCCC1ECEEFD612D812DE01E408E620EE02000403200408070809220A020E040F2010107D
:400D400011241220152116011A081B011C401E801F022002232024012710282029282A102C802E402F04311F32FF332039023A803E043F01580459045B045C135F018401CE
:400D800085148D098F109510990C9B119D209F03A401A51CA702A910AB0CB201B520B71FB808BE04BF10D804D904DC31DF01001001050240030A049006100780084109084C
:400DC0000A860B800D080E040F40109A13041401170419081B801D04210123902650284029182A402D102E08309031083302342036403708381039063B803D803F0869805D
:400E00006A20814086118742880489018E50908091159286930495029750982099109A089B0C9D04A08AA148A30EA404A610A780AB08B082B104C0FFC27FC4AFCA6FCC7F0B
:400E4000CE5FE232E820EC2013021680324033083404364038123E807E488001C430CCF0CE70E62001010620322837805E0161046302801087088A0194109B02A208A640F7
:400E8000A708AC04B640C030CC70D6C0D840E6C0EA1017805180572058085C08600864089B029F80A660A701AE20B101B504C480D460D6C0D8C0E81019081B041E4082404B
:400EC00086209B02A660A701A808A980AB20C630E020E640EEA079408320DC0101100904210257018104864089108A108D8095409601A720AE01C002C208C802D604E0085C
:400F0000E201E404954096019A10A182A640A7210A010B400E8096019A10A182A640A721A940C20E0010050220809240930194109B029D02A304A701AB01AD08AE40B410F1
:400F4000B502C060C840EA80EC10EE405F81630872408380870192409301A304A701B040B302D6A0D840DC80E280E6101F20340156206180661087018A209A10A182A721D2
:400F8000AF40C601CC01D402D602D801E4017C4085028C40A102B001DE04E002EC04100B11011A031C0A1D0100AB01FF100A00000B010000000000000B010B010A010A019E
:400FC0000300000000E0E0006300007F7F007F00000000004000060000000000C0000000000B0B00003434000800140A0A00080000000000007B7B00380000000001000063
:4010000000000000000000000000000000000000000000000000000000000000000000000000000000000000000000000000000000000000000000000000000000000000B0
:401040000000000000000000000000000000000000000000000000000000000000000000000000000000000000000000000000000000000000000000000000000000000070
:401080000000000000000000000000000000000000000000000000000000000000000000000000000000000000000000000000000000000000000000000000000000000030
:4010C00000000000000000000000000000000000000000000000000000000000000000000000000000000000000000000000000000000000000000000000000000000000F0
:0200000490006A
:0400000000004005B7
:0200000490105A
:04000000BC90ACAF55
:0200000490303A
:02000000980066
:0200000490402A
:4000000000000000000000000000000000000000000000000000000000000000000000000000000000000000000000000000000000000000000000000000000000000000C0
:400040000000000000000000000000000000000000000000000000000000000000000000000000000000000000000000000000000000000000000000000000000000000080
:400080000000000000000000000000000000000000000000000000000000000000000000000000000000000000000000000000000000000000000000000000000000000040
:4000C0000000000000000000000000000000000000000000000000000000000000000000000000000000000000000000000000000000000000000000000000000000000000
:0200000490501A
:0C00000000012E16106900012E2FA869C7
:00000001FF