:400000000080002011000000C5010000C501000080B500AF024A034B1B68136000F0D6F8BC760040FA46004010B5054C237833B9044B13B10448AFF300800123237010BDBD
:400040008881FF1F00000000902B0000084B10B51BB108480849AFF300800848036803B910BD074B002BFBD0BDE81040184700BF00000000902B00008C81FF1F0881FF1FCB
:400080000000000080B500AF62B60020012100F08BFB002002F0E4FC074800F013F800F02FF8064B1B78012B05D1054800F00AF8024B00221A70F2E71081FF1FB481FF1F40
:4000C0002082FF1F80B582B000AF786000BF00F0A5FF0346002BFAD07B683F3300221A707B683E3321221A70786802F048FD03469BB27868194600F02DFF0837BD4680BD18
:4001000080B582B000AF2A4B1B78002B0AD100F0EBFC0346002B48D000F0C8FE244B01221A7042E000F068FF0346002B3DD000F087FF0346FB71FB790D2B02D0FB790A2B1A
:4001400010D11C4B1B881A461B4B002199541B48194902F00CFD174B00221A80184B01221A7022E0FB79082B02D0FB797F2B0AD1104B1B88002B06D00E4B1B88013B9AB2DB
:400180000C4B1A8011E00B4B1B883E2B03D9212000F016FF09E0074B1B885A1C91B2054A11801946044AFB7953540837BD4680BDB681FF1FB881FF1FC081FF1F2082FF1F50
:4001C000B481FF1F80B400AFFEE700BF80B586B000AF224B7B61224B3B61204B7B6135E03B691B68FB603B695B68BB603B699B683B6000237B600CE0FB681A68BB681A60AB
:40020000BB680433BB60FB680433FB607B6804337B607A683B689A42EED13B69DB683B6000237B6008E0BB6800221A60BB680433BB607B6804337B607A683B689A42F2D18A
:400240003B6910333B617B69013B7B617B69002BC6D102F053FCFFF715FFFEE701000000AC2D000080B582B000AF184B184A1A60184A184B1B6843F40073136000237B6097
:400280000FE07B68032B04D8134A7B6852F8233000E0124B12497A6841F822307B6801337B607B682F2BECD90E4B1B78DAB20E4B1A700E4B0A4A1A6000F088F902F0D8FAD5
:4002C0000B4B00221A600837BD4680BD0CED00E00004FA0514ED00E000000000C50100000080FF1FBC7600400481FF1F08ED00E00081FF1F80B582B000AF7860396078687C
:4003000000213A6802F02BFC0837BD4680BD00BF80B584B000AFF860B9607A60F868B9687A6802F011FC1037BD4680BD80B483B000AF0346FB71FEE780B487B000AF7860B5
:40034000396000233B6100237B6127E07B699B007A6813441B68BB60BB68FB73BB6823F0FF03BB6014E03B695B003A6813441B781A46BB68134419463B695B003A68134435
:400380005B780B703B6901333B61FB7B013BFB73FB7B002BE7D17B6901337B617B692B2BD4D91C37BD465DF8047B704780B582B000AF3C4B04221A803B4B18221A703B4B19
:4003C0003A221A803A4B18221A703A4B3B221A80394B18221A70394B81221A80384B18221A70384B00221A80374B1B221A70374B06221A70364B52221A70364B364A12782C
:40040000D2B21A70354B40F619121A80344B41F251221A800023FB7019237B6014E0FB785B00DAB22F4B1B78DBB203F00103DBB21343DBB203F00303FB704FF4F07002F087
:4004400007FA7B68013B7B607B68002B02D0FB78032BE4D17B68002B02D10320FFF766FF214B4FF480721A801F4B07221A701F4B00221A701E4B48221A701B4B00221A700F
:400480001C4B00221A701C4B02221A701B4A1B4B1B78DBB243F01F03DBB213700837BD4680BD00BF80400040824000408440004086400040884000408A4000408C4000405C
:4004C0008E40004090400040924000400043004000420040A14600400F0100492242004020420040254200400440004006400040084000400940004001400040A243004099
:4005000080B582B000AF234B1B78FB71224B1B78BB71224B1B787B71214AFB7903F00703DBB213701F4AFB791B09DBB213701A4ABB7943F00303DBB21370184A7B7943F0B9
:400540000303DBB21370184BE0221A70174BF4221A70174B40221A70164B40221A70164BE0221A70154B4F221A70154B20221A70144B40221A700A2002F0B4F9074A7B790C
:400580001370054ABB7913700F4B44221A700837BD4680BDCF010049F8460040F94600406E5800406F5800400D5100401D510040095900400B590040005B0040285B0040D6
:4005C0002B5B0040585B00407658004080B586B000AF72B6584B61221A70FFF7E7FE564B01221A70554A554B1B78DBB243F00403DBB213700023FB7513E0FA7D13465B00BF
:4006000013445B004E4A13443B613B691A683B699B889BB210461946FFF76CFEFB7D0133FB75FB7D072BE8D90023FB751CE0FA7D13469B0013445B00424A1344FB60FB685A
:400640001B68BB60FB685B687B60FB681A7A5B7A1B0213437B807B88B86879681A46FFF757FEFB7D0133FB75FB7D012BDFD94FF090403549FFF760FE34480421FFF73AFECA
:40068000334834490422FFF743FE334A324B1B78DBB243F00203DBB21370304A2F4B1B78DBB243F00203DBB213702D4A2C4B1B78DBB243F04003DBB213702A4A294B1B7818
:4006C000DBB243F01003DBB21370274827490822FFF71EFE264827490822FFF719FE264826490A22FFF714FE254826490822FFF70FFE254825490A22FFF70AFE24482549EE
:400700000822FFF705FE244BC4221A70234B44221A70234A224B1B78DBB243F00803DBB21370FFF7EDFE1F480D490E22FFF7F0FD1837BD4680BD00BF00480040E84600401C
:40074000942B0000C42B0000B00000480076004008760040D00F00480350014013500140A0430040C243004002510040980F0048C2510040A00F0048F0510040A80F00484C
:4007800012510040B40F004820510040BC0F004832510040C80F00485B080140DB14014022430040B043004080B582B000AF03460A46FB711346BB71084B1B78002B04D1B3
:4007C00000F00EF8054B01221A70FA79BB791046194600F0D5F80837BD4680BDBA81FF1F80B582B000AF02F03BF80346FB71534A524B1B78DBB243F00103DBB21370504AEA
:400800004F4B1B78DBB243F00103DBB213704D4B01221A704C4B02221A704C4A4B4B1B78DBB203F07F03DBB21370002002F05AF8474A474B1B78DBB223F00603DBB2137089
:40084000444A444B1B78DBB223F02003DBB213703F4A3F4B1B78DBB243F00103DBB21370012002F03FF8282002F03CF83A4A3A4B1B78DBB203F07F03DBB21370364A364B14
:400880001B78DBB223F04003DBB21370304A304B1B78DBB243F00203DBB21370022002F021F82B4A2A4B1B78DBB243F00403DBB213702A4B00221A70294B00221A70FB791F
:4008C000184601F0D1FF1720072102F045F81720244902F019F81820072102F03DF81820214902F011F81520072102F035F815201E4902F009F80120072102F02DF80120F4
:400900001B4902F001F80220072102F025F80220184901F0F9FF0320072102F01DF80320154901F0F1FF0C20072102F015F80C20124901F0E9FF0837BD4680BDA543004095
:40094000B54300409D60004009600040106000409443004012600040F8510040846000408560004039180000091100002D180000291700007D170000D11700004518000045
:4009800080B582B000AF03460A46FB711346BB712E4AFB7913702E4B00221A702D4B00221A702D4B00221A702C4B00221A702C4B00221A702B4B00221A702B4B00221A7031
:4009C0002A4B4FF400021A60284B4FF080721A60264B4FF400121A60244B02221A60234B04221A60214B08221A60BB79002B02D0012B09D011E01E4A1D4B1B78DBB223F010
:400A00000103DBB2137011E0194A194B1B78DBB243F00103DBB2137008E0154A144B1B78DBB243F00103DBB2137000BF114B03221A70114B80221A70012001F009FF0F4BB0
:400A400004221A700837BD4680BD00BFB982FF1FBC82FF1FD882FF1FDB82FF1FD082FF1FDA82FF1FDD82FF1FB882FF1F00E100E00960004028600040086000401260004095
:400A800080B400AF0F4B00221A700F4B00221A700E4B00221A700E4B00221A700D4B00221A700D4B00221A700C4B00221A700C4B03221A700B4B80221A70BD465DF8047BD3
:400AC000704700BFBC82FF1FD882FF1FDB82FF1FD082FF1FDA82FF1FDD82FF1FB882FF1F286000400860004080B400AF034B1B78DBB21846BD465DF8047B7047DB82FF1F4A
:400B000080B483B000AF0346FB71FA79064913465B0013449B000B445B78DBB218460C37BD465DF8047B7047E082FF1F80B485B000AF0346FB710023FB81FB79002B1BD02E
:400B4000FB79082B18D8104AFB791B0113441B78DBB29BB203F00F03FB81FB891B029AB20949FB791B010B445B78DBB29BB21343FB81FB89023BFB81FB8918461437BD46A5
:400B80005DF8047B704700BFFC5F0040B0B485B000AF03463960FB711346BB80FB79002B66D0FB79082B63D8B988FA79324813465B0013449B000344DB889BB2C3F5007379
:400BC00099420BD9FA792C4913465B0013449B000B44DB889BB2C3F50073BB80274CF979BB881B0A9BB2D8B2FA79234D13465B0013449B002B44DB78DBB20343DAB20B0169
:400C000023441A701D4AFB79B988C9B21B0113440A465A703B68002B13D00023FB810CE01748FB79FA8939680A4412781B01034408331A70FB890133FB81FA89BB889A4296
:400C4000EED3FA790C4913465B0013449B000B4400225A700948F979FA79074C13465B0013449B0023445B79DAB20B0103449A701437BD46B0BC7047E082FF1FFC5F00402B
:400C80007060004080B584B000AF03463960FB711346BB803B68002B30D0FB79002B2DD0FB79082B2AD8FB791846FFF73FFF03461A46BB88934205D9FB791846FFF736FF75
:400CC000034600E0BB88BB800023FB810DE0FB893A6813440D49FA7912010A4408321278D2B21A70FB890133FB81FA89BB889A42EDD3FB79184600F00BF801E00023BB80AE
:400D0000BB8818461037BD4680BD00BF7060004090B482B000AF0346FB71FB79002B19D0FB79082B16D8FA790C4913465B0013449B000B4400225A700948F979FA79074C93
:400D400013465B0013449B0023445B79DAB20B0103449A700837BD4690BC7047E082FF1FFC5F004080B582B000AF0023FB71324B1B79DBB2184600F069F80346BB712E4B69
:400D80001B78DBB2DBB25BB2002B16DA2A4B5B78DBB2212B00D00FE0284B07221A80BA791346DB009B1A264A1344244A536000F025FB0346FB7100BF38E01F4B5B78DBB2DE
:400DC000202B02D0222B1AD030E01C4B07221A80BA791346DB009B1A194A1344174A5360BB79BA7917498A5CD2B242F00102D1B2144AD15400F082FB0346FB7116E0BB79C3
:400E00000D4A9278D2B291B20F4A22F81310BB79BA790C498A5CD2B242F00202D1B2094AD15400F007FC0346FB7100BFFB7918460837BD4680BD00BF00600040C482FF1F22
:400E40005081FF1FA082FF1FB482FF1F80B485B000AF0346FB710023FB73FF23BB7317E0FB7B104AD35C7B737A7B0F4913465B0013449B000B4408339B78DBB2FA799A42F1
:400E800003D1FB7BBB730223FB73FB7B0133FB73FB7B012BE4D9BB7B18461437BD465DF8047B7047A882FF1FE082FF1F80B582B000AF0023BB71224B00221A70214B00226F
:400EC0001A70204B00225A700023FB7110E0FB791D4AD35C7B717B79002B06D07B79082B03D87B791846FFF713FFFB790133FB71FB79012BEBD9154B1B78DBB2002B18D040
:400F0000114B1B78DBB2002B13D0114B1B78DBB2002B0ED00D4B1B78DBB2082B09D80A4B1B78DBB2082B04D8094B1B78DBB2082B01D90123BB71BB7918460837BD4680BDB0
:400F4000BB81FF1FA082FF1FAC82FF1FA482FF1FA882FF1F80B584B000AF78600B467B80144B1B781A46144B9B5CFB73FA7B134913465B0013449B000B4408331B889BB2BC
:400F80007A889A420CD9FA7B0C4913465B0013449B000B4408331B887B80002001F096FCFA7B7B88104679681A46FFF7EFFD1037BD4680BDBB81FF1FA482FF1FE082FF1F9D
:400FC00080B584B000AF0346FB71FB79FB73084B1B781A46074B9B5CDAB207F10F03104619460122FFF7D2FD1037BD4680BD00BFBB81FF1FA482FF1F80B500AF054B1B78D5
:401000001A46054B9B5CDBB21846FFF779FD0346184680BDBB81FF1FAC82FF1F80B500AF054B1B781A46054B9B5CDBB21846FFF767FD0346184680BDBB81FF1FA482FF1FF3
:4010400080B582B000AF094B1B781A46084B9B5CFB71FA79BB1D104619460122FFF712FEBB7918460837BD4680BD00BFBB81FF1FAC82FF1F80B485B000AF78600B46FB7012
:401080001346BB707B68DB7803F00303FB737B689B78DBB25BB2002B1ADAFB7B032B0AD0BB7803F001031549FA78CA54BB7843F00103BB701BE0BB789B08DBB203F00103E0
:4010C0000F49FA78CA54BB7843F00403BB700EE0FB7B032B0BD0BB785B08DBB203F001030849FA78CA54BB7843F00203BB70BB7818461437BD465DF8047B7047A482FF1FC4
:40110000A882FF1FAC82FF1F80B582B000AF374B1B78BB71BB7903F01003002B63D00123FB71BB795BB2002B13DABB7903F00F03012B02D00023FB711DE000F061F82C4BC0
:401140001B78DBB2DBB25BB2002B14DA0023FB7111E0BB7903F04003002B02D000F094F809E0BB7903F02003002B02D000F0B2F801E00023FB71FB79002B34D01B4B1B7863
:40118000BB71BB795BB2002B2DDB1A4B1B78DAB2194B1B78DBB21343BB71184ABB791370164B1B78DBB2BA799A421CD1104B1B78FB710E4B1B78DBB223F07F03BB71BB79A7
:4011C000002B0AD1094B0A4A1278D2B21A70074B1B78DBB203F00F03FB71054B1B78DBB2FA799A42E2D10837BD4680BD28600040D982FF1F4E83FF1FDC82FF1F2960004060
:4012000080B582B000AF1D4B1B78FB711B4AFB7913701A4B1B78FB71FB795BB2002B03DA174AFB79137025E0022000F043FA154B1B78DBB203F06003202B08D0402B0BD0FD
:40124000002B0ED100F004FB0346FB710CE001F017FC0346FB7107E001F0C0FA0346FB7102E00023FB7100BFFB79002B02D1044B03221A700837BD4680BD00BF286000402E
:40128000D982FF1F0060004080B500AF104B1B78DBB2062B19D801A252F823F0CB120000CB120000B9120000CB120000BF120000CB120000C512000000F0FAF806E000F0F5
:4012C000A9F903E000F0D2F900E000BF80BD00BFBC82FF1F80B500AF124B1B78DBB2062B1DD801A252F823F01F1300001F130000051300001F1300000B1300001F13000032
:401300001113000000F0DAF80AE000F029F907E0032000F0CFF9044B03221A7000E000BF80BD00BFBC82FF1FD982FF1F80B483B000AF0023FB71294B1B78DBB29AB2284BA3
:401340001B889BB213449AB2254B1A8015E02549FB79254A52681278D2B2CA54224B5B680133214A5360FB790133FB711E4B1B889BB2013B9AB21C4B1A801B4B1B889BB2D6
:40138000002B02D0FB79072BE1D9144B1B78DBB2082B02D0FB79002B0FD0144B1B78DBB283F07F03DB43DAB2104B1A70104B0F221A70104B02221A7005E00D4B02221A70C1
:4013C0000C4B02221A700C4AFB791370034AFB7913700C37BD465DF8047B7047B882FF1FBA82FF1F00600040C482FF1F4E83FF1FD982FF1FBC82FF1FDC82FF1F80B582B029
:4014000000AF164B1B889BB2002B02D100F02EF81EE0134B02221A70124B00221A7000F069F9114BDB79DBB29BB21B029AB20E4B9B79DBB29BB21343FB80084B1B889BB2E5
:40144000FA889A4202D2054AFB881380FFF76EFF012318460837BD4680BD00BFC482FF1FBC82FF1F4E83FF1F0060004080B400AF0A4B02221A700A4B80221A70094B0F2277
:401480001A70094B00221A70084B00221A7001231846BD465DF8047B704700BFBC82FF1F4E83FF1FD982FF1FB882FF1FDC82FF1F80B500AFFFF73AFF80BD00BF80B500AF49
:4014C0000A4B1B78DBB29AB2094B1B889BB213449AB2074B1A80074B00221A70012000F0E9F8054B03221A7080BD00BFB882FF1FBA82FF1FBC82FF1FD982FF1F80B582B07F
:4015000000AF124B04221A70114B80221A7000F0F1F8104BDB79DBB29BB21B029AB20D4B9B79DBB29BB21343FB800B4B1B889BB2FA889A4202D2084AFB881380074B0B2226
:401540001A70012318460837BD4680BDBC82FF1F4E83FF1F00600040C482FF1FD982FF1F80B483B000AF0023BB71234B1B78DBB203F00F03DBB2023BFB71FB799AB21F4BC0
:401580001B889BB213449AB21C4B1A8018E01C4B5B681C49BA798A5CD2B21A70184B5B680133174A5360BB790133BB71FB79013BFB71134B1B889BB2013B9AB2104B1A8000
:4015C0000F4B1B889BB2002B02D0FB79002BDED10D4AFB7913700D4B1B78DBB283F07F03DB43DAB2094B1A70094B0B221A700C37BD465DF8047B704729600040BA82FF1F14
:40160000C482FF1F00600040DC82FF1F4E83FF1FD982FF1F80B500AF044B00221A70012000F048F8024B03221A7080BDBC82FF1FD982FF1F80B400AF084B06221A70084B49
:4016400006221A70074B80221A70074B00221A7001231846BD465DF8047B7047BC82FF1FD982FF1F4E83FF1FDC82FF1F80B500AF0C4B1B78DBB2002B0AD00B4A094B1B7850
:40168000DBB263F07F03DBB21370064B00221A70064B00221A70012000F00CF8044B03221A7080BDDA82FF1F08600040BC82FF1FD982FF1F80B483B000AF0346FB710B4B56
:4016C0009B68002B0CD0094B9B68FA791A70074B9B68074A128892B25A80044B00229A600C37BD465DF8047B704700BFC482FF1FBA82FF1F80B400AF094B00221A80094B2E
:401700009B68002B07D0074B9B6800221A70054B9B6800225A80BD465DF8047B704700BFBA82FF1FC482FF1F80B400AF104A104B1B78DBB223F00103DBB213700D4B9B7CFB
:401740000D4B1B7BDBB203F00303012B08D00A4BDB7BDBB283F07F03DB43DAB2064BDA73054B01225A73BD465DF8047B704700BF0B600040FC5F0040E082FF1F80B400AF46
:40178000104A104B1B78DBB223F00203DBB213700D4B93F822300D4B1B7EDBB203F00303012B08D0094BDB7EDBB283F07F03DB43DAB2064BDA76054B01225A76BD465DF867
:4017C000047B70470B600040FC5F0040E082FF1F80B400AF124A124B1B78DBB223F00403DBB213700F4B93F832300F4B93F82430DBB203F00303012B0AD00B4B93F82730C3
:40180000DBB283F07F03DB43DAB2074B83F82720054B012283F82520BD465DF8047B70470B600040FC5F0040E082FF1F80B400AFBD465DF8047B704780B500AFFFF720F97D
:4018400080BD00BF80B500AF00F0F2FF80BD00BF80B586B000AF0023FB759D4B1B78FB7100233B619B4B00221A80FB795BB2002B80F20481964B5B78DBB20A2B00F2FC802F
:4018800001A252F823F000BFD1190000791A0000791A0000791A0000791A0000791A0000B5180000791A0000431A0000791A0000591A0000864BDB78DBB2012B0ED100F031
:4018C00017FEB860BB685B68824A5360814B12221A80FFF793FD0346FB7578E07C4BDB78DBB2022B24D17A4B9B78DBB2184600F0D5FDB860BB68002B69D0BB685B68754A93
:401900005360744B5B6803331B78DBB29BB21B029AB2704B5B6802331B78DBB29BB213439AB26C4B1A80FFF769FD0346FB75A4E0674BDB78DBB2032B44D10023FB73664BA3
:401940003B6109E03B691B78BB71BB793A6913443B61FB7B0133FB735D4B9B78DBB2FA7B9A4204D23B691B78DBB2002BEAD1584B9B78DBB2EE2B01D1584B3B61544B9B7865
:40198000DBB2002B0BD0524B9B78DAB2544B1B7C9A4204D1534800F0A1F9524B3B613B691B78DBB2002B12D03B691B78DBB29AB2484B1A80474A3B695360FFF71FFD0346C2
:4019C000FB755AE001F05CF80346FB7555E054E0FB7903F00303002B1FD0022B00D02FE03C4B02221A803A4B1B79DBB203F07F023D4913465B0013449B000B449B78DAB2CA
:401A00003A4B1A70394B00225A70324B374A5A60FFF7F4FC0346FB7512E02E4B02221A80334B1B78DAB2314B1A70304B00225A70284B2E4A5A60FFF7E1FC0346FB7500BFAD
:401A40001BE0244B01221A80224B2A4A5A60FFF7D5FC0346FB7510E01E4B01221A801C4B1B79DBB21A46244B13441A4A5360FFF7C5FC0346FB7500E000BF19E1144B5B780E
:401A8000DBB2013B0A2B00F2128101A252F823F09B1B0000AF1C0000251C0000AF1C0000BD1A0000AF1C0000AF1C0000AF1C0000011B0000AF1C0000571B0000044B9B7823
:401AC000DAB20E4B1A70FFF7B5FD0346FB75EFE000600040C482FF1F442C00004C2D0000EC2B00005483FF1FE082FF1FBC81FF1FDD82FF1FDB82FF1F4C83FF1FDA82FF1F14
:401B00006E4B9B787B717B79002B06D07B79013BDBB2184600F0C2FCB8607B79002B02D0BB68002B02D17B79002B13D1644B1B78DBB27A799A4208D0614A7B791370614BBE
:401B400001221A70012000F0C1F9FFF773FD0346FB75ADE0ACE000F009FE0346002B1BD0564B1B793B71554B1B79DAB2564B1A703B79564AD35CDAB23B795549CB5CDBB27E
:401B80009A4204D04F4B01221A7000F069FBFFF751FD0346FB758BE08AE0FB7903F00303012B22D0012B0DD3022B00D039E0434B9B78DBB2002B04D100F040FD0346FB7547
:401BC0002FE02EE03D4B9B78DBB2012B0CD1414B1B78DBB223F00203DAB23E4B1A70FFF729FD0346FB751CE01BE0344B1B79DBB2012B15D8314B9B78DBB2DB43DBB22F4A6F
:401C00001279D2B211461046334A125CD2B21340DAB2314B5A54FFF70DFD0346FB75FFE700BF45E0FB7903F00303012B22D0012B0DD3022B00D039E0204B9B78DBB2002B0A
:401C400004D100F08DFC0346FB752FE02EE01B4B9B78DBB2012B0CD11E4B1B78DBB243F00203DAB21B4B1A70FFF7E4FC0346FB751CE01BE0114B1B79DBB2012B15D80F4B7E
:401C80009B78DBB2DB43DBB20C4A1279D2B211461046114A125CD2B21340DAB20E4B5A54FFF7C8FC0346FB75FFE700BF00E000BFFB7D18461837BD4680BD00BF0060004019
:401CC000DB82FF1FD882FF1FD082FF1FC082FF1F4C83FF1FDD82FF1F5083FF1FB0B58AB000AF7860314B07F114041D460FCD0FC42B682370002387F826307B68002B52D0B4
:401D00007B6822221A707B68013303221A7007F10C03184600F042FE022387F827303EE097F827307A68134497F8262007F128010A4412F81C2C1209D2B207F128010A44BB
:401D400012F8142C1A7097F8273001337A68134400221A7097F8273002337A68134497F8262007F128010A4412F81C2C02F00F0207F128010A4412F8142C1A7097F827307A
:401D800003337A68134400221A7097F82630013387F8263097F82730043387F8273097F82730212BBCD92837BD46B0BDD82B000090B482B000AF0123FB7174E03F4AFB7988
:401DC0001B0113440C221A70FA793D4913465B0013449B000B445B79DBB2002B1AD0FA79374913465B0013449B000B441B79DBB2DBB25BB2002B06DA324AFB791B01134443
:401E00000C229A700CE02F4AFB791B01134408229A7005E02B4AFB791B01134480229A702648F979FA79264C13465B0013449B002344DB889BB2DAB20B0103449A711F482A
:401E4000F979FA791E4C13465B0013449B002344DB889BB21B0A9BB2DAB20B010344DA711648F979FA79164C13465B0013449B002344DB889BB2DAB20B0103441A710F4897
:401E8000F979FA790E4C13465B0013449B002344DB889BB21B0A9BB2DAB20B0103445A71FB790133FB71FB79082B87D9064BFF221A700837BD4690BC704700BF70600040DF
:401EC000E082FF1FFC5F00400A60004080B58AB000AF0346FB7100237B84002387F827304CE097F82720C44913465B0013449B000B4400221A7097F82720BF4913465B00ED
:401F000013449B000B4400229A7097F82720BA4913465B0013449B000B440022DA7097F82720B54913465B0013449B000B44083300221A8097F82720AF4913465B00134461
:401F40009B000B44083300229A7097F82720AA4913465B0013449B000B4400225A7097F82720A54913465B0013449B000B4400225A7197F82730013387F8273097F82730EA
:401F8000082BAED9FB79002B16D0002387F825300EE097F82530994A0021D15497F82530974A0021D15497F82530013387F8253097F82530012BECD9924B1B78DBB2002BFC
:401FC00000F049810023FB768E4B1B78DBB2013BDBB2184600F062FA78617B695B683B613B6907331B7803F04003002B08D0864B1B78DBB243F00103DAB2834B1A7007E06E
:40200000814B1B78DBB223F00103DAB27E4B1A707B6908337B617B691B7887F82730012387F82530B3E07B695B68FB61002387F82630A0E097F82520FB699B7803F07F03B0
:402040009A4240F0908097F825206B4913465B0013449B000B4408331B889AB2FB699B889A420CD297F82520FB699888624913465B0013449B000B44083302461A80FB69E3
:402080001B781A465D4B9B5CDAB2FB695B789A4269D197F82520FB699878574913465B0013449B000B4402461A7197F82520FB69D878514913465B0013449B000B440246A6
:4020C0001A70FB69DB7803F00303FB73FB699B78DBB25BB2002B1ADA97F82520FB7B012B01D1072000E00D20434913465B0013449B000B4402465A7197F825203E49134644
:402100005B0013449B000B4401225A7019E097F82520FB7B012B01D1052000E00920364913465B0013449B000B4402465A7197F82520314913465B0013449B000B440022BB
:402140005A70FB699B790A2B03D0FB699B79022B09D197F82520FB7EF86911461A46FEF789FF0346FB76FB690833FB6197F82630013387F8263097F8262097F827309A427A
:40218000FFF458AF97F82530013387F8253097F82530082B7FF647AF7B695B68FB61002387F8253016E0FB699B7803F07F02FB691878114913465B0013449B000B4408335E
:4021C00002469A70FB690833FB6197F82530013387F8253097F8252097F827309A42E2D300F098F90246094B1A6000237B84012387F8273029E000BFE082FF1F4C83FF1F73
:40220000C082FF1FDB82FF1FDD82FF1FD482FF1F97F82720114913465B0013449B000B447A8CDA8097F827200C4913465B0013449B000B4408331B889AB27B8C13447B84A6
:4022400097F82730013387F8273097F82730082BDED9FFF7ADFD2837BD4680BDE082FF1F90B585B000AF874B1B78DBB2002B00F00681844B1B78DBB2013BDBB2184600F01C
:402280000DF978607B6808337B607B681B78FB707B685B68BB607C4B1B78BB700023FB73E8E0BB681B78BA789A4240F0DD80BB78764AD35CDAB2BB685B789A4240F0D48072
:4022C000BB689B7803F07F037B70BB68DB7803F003033B707A786E4913465B0013449B000B440022DA707A78BB689878684913465B0013449B000B4402461A717A78BB6871
:40230000D878634913465B0013449B000B4402461A707A78BB6898885D4913465B0013449B000B44083302461A80BB689B78DBB25BB2002B18DA7A783B78012B01D1072036
:4023400000E00D20524913465B0013449B000B4402465A717A784E4913465B0013449B000B4401225A7017E07A783B78012B01D1052000E00920464913465B0013449B0045
:402380000B4402465A717A78414913465B0013449B000B4400225A703E4A7B781B01134401229A703B4879787A78394C13465B0013449B00234408331B889BB21B0A9BB2AE
:4023C000DAB20B0103441A70324879787A78304C13465B0013449B00234408331B889BB2DAB20B0103445A702B4879787A78284C13465B0013449B002344DB889BB2DAB2A7
:402400000B0103449A71244879787A78204C13465B0013449B002344DB889BB21B0A9BB2DAB20B010344DA711B4879787A78184C13465B0013449B002344DB889BB2DAB237
:402440000B0103441A71144879787A78104C13465B0013449B002344DB889BB21B0A9BB2DAB20B0103445A71BB680833BB60FB7B0133FB73FA7BFB789A42FFF412AF1437B6
:40248000BD4690BDDB82FF1FD082FF1F4C83FF1FE082FF1FFC5F00407060004080B485B000AF0346FB71104B1B78DBB20F4ADB0013445B68FB60FB681033FB60FB681B78E1
:4024C000FA799A4202D30023FB6005E0FB79DB00FA6813445B68FB60FB6818461437BD465DF8047B704700BFB982FF1F442D000080B400AF054B1B78DBB2054ADB00134438
:402500005B681846BD465DF8047B7047B982FF1F442D000080B584B000AF104B1B78DBB2013BDBB21846FFF7B9FFB860BB68002B0DD0BB685B681B79FB71FB790233DB000D
:40254000BA681344BB60BB685B68FB6001E00023FB60FB6818461037BD4680BDDB82FF1F80B582B000AF0023FB71314B1B79DBB203F07F03BB71BB79002B53D0BB79082B98
:4025800050D8BA79B9792B480B465B000B449B0003449B78DBB243F00103D8B2254913465B0013449B000B4402469A70BA79214913465B0013449B000B440022DA70BA79F7
:4025C000B9791C480B465B000B449B0003445B78DBB243F00203D8B2164913465B0013449B000B4402465A70BA79124913465B0013449B000B441B79DBB2DBB25BB2002B77
:4026000006DA0D4ABB791B0113448D229A7005E0094ABB791B01134489229A70FFF70AF80346FB71FB7918460837BD4680BD00BF00600040E082FF1FFC5F004080B582B090
:4026400000AF0023FB71464B1B79DBB203F07F03BB71BB79002B7DD0BB79082B7AD8BA79B97940480B465B000B449B0003449B78DBB223F00103D8B23A4913465B001344CB
:402680009B000B4402469A70BA79364913465B0013449B000B440022DA70334ABB791B0113447F221A70BA79B9792E480B465B000B449B0003445B78DBB223F00203D8B2C2
:4026C000284913465B0013449B000B4402465A70BA79244913465B0013449B000B441B79DBB2DBB25BB2002B18DABA791D4913465B0013449B000B445B78DBB2012B06D104
:40270000194ABB791B0113440C229A701EE0164ABB791B0113440D229A7017E0BA79114913465B0013449B000B445B78DBB2012B06D10D4ABB791B01134408229A7005E026
:40274000094ABB791B01134409229A70FEF772FF0346FB71FB7918460837BD4680BD00BF00600040E082FF1FFC5F004080B584B000AF0023FB73154B1B79BB73144B1B7887
:40278000DBB2013BDBB21846FFF788FEB860BB685B681B79FB71BA7BFB799A4202D9BB7B022B0ED8BB7BBA7B0A498A5CD1B20A4AD154BB7B054A9278D1B2064AD1540123F7
:4027C000FB73FB7B18461037BD4680BD00600040DB82FF1F4C83FF1FC082FF1F80B582B000AF0023FB710F4B1B78DBB2DBB25BB2002B12DA0B4B5B78DBB2012B00D00CE03A
:40280000094B0A4A5A60094B1B789AB2064B1A80FEF7F4FD0346FB7100BFFB7918460837BD4680BD00600040C482FF1F602D000080B400AF054B1B78DBB203F040039B09AF
:40284000DBB21846BD465DF8047B70478F4500400230800803D000BF01380046FCD17047EFF3108072B6704780F31088704700BF80B483B000AF134B7F221A70124B80220C
:402880001A707F23FB710CE0FB79DB0003F1804303F5F043FA79013AD2B21A70FB79013BFB71FB79002BEFD1FB79DB0003F1804303F5F04300221A700C37BD465DF8047B35
:4028C000704700BF6D81FF1F6C81FF1F80B483B000AF0346FB7101BE0C37BD465DF8047B704700BF80B582B000AF0346FB80FB88044A127802FB03F31846FFF7A9FF0837CE
:40290000BD4680BD7C81FF1F80B584B000AF03463960FB710F4B1B68FB60FB791F2B02D90020FFF7D3FFFB7903F01F0310339B00FA6813441B68BB60FB7903F01F03103393
:402940009B00FA6813443A681A60BB6818461037BD4680BD08ED00E080B582B000AF03460A46FB711346BB71BB79072B02D90020FFF7ACFFFB791F2B02D90020FFF7A6FF14
:40298000FB7903F01F0303F1604303F56443BA795201D2B21A700837BD4680BD80B483B000AF7860264B1B78DBB21A467B681A60244B1B78DBB21B027A6812681A437B68C1
:4029C0001A60214B1B78DBB21B047A6812681A437B681A601D4B1B78DBB21B067A6812681A437B681A607B680433194A1278D2B21A60184B1B78DBB21A027B68043379683E
:402A0000043109680A431A60134B1B78DBB21A047B6804337968043109680A431A600F4B1B78DBB21A067B6804337968043109680A431A600C37BD465DF8047B704700BF93
:402A40000301004904010049EC460040020100490101004900010049050100490601004980B483B000AF0346FB71044AFB7913700C37BD465DF8047B704700BF7B6400400A
:402A800080B582B000AF1A4B1B78DBB203F00303012B02D0022B04D012E0154B1B79BB7111E0134B1B79DBB203F07F02114913465B0013449B000B4408339B78BB7102E0E2
:402AC0000023BB7100BF0C4B1A68BB7913441B78022B04D1FEF746F90346FB7102E00023FB7100BFFB7918460837BD4680BD00BF00600040E082FF1FD482FF1F0E4B70B594
:402B00001E460E4C0025E41AA410A54204D056F8253098470135F8E700F036F9084B094C1E46E41AA4100025A54204D056F8253098470135F8E770BD942D0000942D0000AB
:402B4000942D00009C2D000010B5431E0A44914204D011F8014B03F8014FF8E710BD03460244934202D003F8011BFAE77047034611F8012B03F8012B002AF9D170470346E6
:402B800013F8012B002AFBD1181A01387047000000000000004F0040240040510040300000000140000C800C0140800300140140000800400140000A004C0140000210509E
:402BC00001401000000C0140080F0048800000500140880F0048100030313233343536373839414243444546000000001201000202000008B40432F20100010280010000B6
:402C000009024300020101C032090400000102020103052400100104240202052406000105240100010705810308000A09040100020A0000040705820240000007050302D8
:402C400040000000040309042C0343007900700072006500730073002000530065006D00690063006F006E0064007500630074006F007200100355005300420055004100D6
:402C8000520054003803430044004300200043006F006D006D0075006E00690063006100740069006F006E00200049006E00740065007200660061006300650026034300D6
:402CC0004400430020004400610074006100200049006E00740065007200660061006300650000000203000000008103080002000100820240000A000100030240000A0050
:402D0000020A000001000000002C000003000000E82C00000000000000000000000000000000000000000000002D000001000000EC2B0000000000000000000001000000FD
:402D4000042D0000010000002C2D000012034D0053004600540031003000300001000000280000000001040001000000000000000001435955534200000030303030310041
:402D80000000000000000000F8B500BFF8BC08BC9E4670474D00000065020000F8B500BFF8BC08BC9E46704729000000C02D00000881FF1F80000000F00100000000000033
:402DC000000000000A000000435333303120323031360A000000000000000000000000000000000000000000000000000000000000000000000000000000000000000000AC
:402E0000000000000000000000C2010000000800C201000000080000A12000000000020000000000807F0000030000000087930360EA00003C0000000000307500000000EF
:402E40000000000000000000000000000000000000000000000000000000000000000000000000000000000000000000000000000000000000000000000000000000000052
:402E80000000000000000000000000000000000000000000000000000000000000000000000000000000000000000000000000000000000000000000000000000000000012
:402EC00000000000000000000000000000000000000000000000000000000000000000000000000000000000000000000000000000000000000000000000000000000000D2
:402F00000000000000000000000000000000000000000000000000000000000000000000000000000000000000000000000000000000000000000000000000000000000091
:020000040003F7
:0200000480007A
:4000000001450040064F00400A520040015B004005640040036500404E0001403301014051020140530301404B040140570501406606014053070140380801404E0901405F
:40004000330A0140500B0140040C0140490D01404A0E0140390F0140481401404915014035160140481701402A18014046190140361A0140461B01400C4001401E41014071
:400080001B4201400F43014005440140114501400B460140094701401048014011490140114C0140074D014005500140035101407E0201200A4B0D20164B1940224B00A04F
:4000C00001C0089009A4100818281920600861047C402F84840F870F886F8B388F72856F860F8907013803050580060209200C280D120E500F2011401306147817011838FB
:4001000019281C501D191E281F22212122012318260428182A602C602E182F013004313E3278338034023501360137403F545280580459045B045C305F01810183028801AC
:400140008C018D018F029108920493049504970899049A019B189E08A102A202A301A504A728AD01AF02B008B103B201B310B402B520B604B70CBB82BE04D804D904DF0100
:4001800001040301046009200A120E8511601250168019081A511B601C021D041E801F1221022204230926952701282229042A012D012F12311233483614370139A03A02BE
:4001C0003B043C023F805D015E02734081108401870489108F01C0C5C2D7C41FCAD9CCEFCE9FE202E606000B010202040305040C06010C080D020E010F04110212401304F8
:4002000015601708180C19601A021B101D381E202140220F2308278029042A102B7A2C072D582F203010310632403378340F35C0362037013B025608580459045B045D9042
:400240005F01810E83F084FD860287018CCF8E3091C5933A9873997F9C949D969E609F68A030A2C9A5FEA701AA0FAC9EADA3AE60AF5CB2FFB5FFB908BE04BF14D608D8045D
:40028000D904DB04DD90DF0101480220030204A005010604071009200B010E0A0F80100212841404150117801A201CE01E092118248025422714284029082B422C082D016D
:4002C0002F113002312032813540360537903802390C3B013D803E015A805E806240668069106B017E807F4080088102858087088910910192489340946095C4960698215F
:4003000099089B089ED19F40A280A320A530A708AE02B002C0B5C2D3C4DBCAFACCFDCE93D618D818E202E601E801EC01EE0E01D1030804B706400B020CC00E240F1D11D157
:40034000130416081877197C1CC11D011E121F042084221025AD27102A072C012EF230F0311D320F330335E0392054015604580459045B045D305F01807D83018480870264
:4003800089088B108C3B8D0690289110925093089508971098669A18A018A108A260A310A480A702A856AA28AB04B078B101B304B480B502B607B718B8A0BB80BF14D80441
:4003C000D904DF010108030204200545060C09200A220D020E081180128415011610171018201B021D411E041F0121252201240A25C02609270129082C442E082F0431A00B
:400400003302370939223B803CA03E043F01581159805A086380850887088C848F409121926893C09422950896069722982399889B149C449D419E119F40A050A10AA28412
:40044000A320A520A601A70AA802A940AA20B240B301B510B640B701C0B5C257C47BCAE2CCCDCEFDD60FD801E208E642E830EA01EE2000FE01940201036004C5063A0C7FDB
:40048000109611FD1268130215CF173018A3199E1A5C1B601F0F200E217322F026012D302FC934FF37FF3E103F404046410249FF4AFF4BFF4DA04F01501856085804590457
:4004C0005A045B045D905F016040628064406540668068406A806C406D206E808401860287048B018F04900297029801A401A504AF08B002B101B302B401B508B704B820EA
:40050000BE11BF40C056C102C5C2C63EC704C81FC9FFCAFFCBFFCDAFCE07CF01D018D40FD804D904DA04DB04DF01E040E280E440E540E680E840EA80EC40ED20EE800210BE
:4005400005430622071009200A440C010D020E080F0810201501170419101A081B011F10202221102202230A25402A402B202C012E02310435013684371039283B403D017C
:400580004208440146084742486149144E0451805210530458A25A045D40670178407A0289A08C20914992409340972998A299419A089B149C409D049E109F08A122A204AE
:4005C000A320A940AA01B010B208B740C0B4C25AC434CA9ACCF2CE8ED0A4D22CD61FD810E604EA04032007040A010B080F1012011401150319041A011C011D02210327019B
:400600002A012B102C012D2031033201330C3510372039023F51540F580459045B045C915F0589048A018C018D0491019201940198019B039C01AA01B001B102B304B501C1
:40064000B908BF04D203D302D804D90CDB04DC11DD10DF01012002010520084009200AA00B100C410D200F101204160519011F08201022212584261227102C802E082F06C6
:400680003201331036A0370839A03C803D083F21418042015D885E015F20672469606B0479407F40810183018B508F219180930896A099809A089B089C409D209E05A0C006
:4006C000A280A310A520A612A880AB10B004B180B302B404B501C043C2FFC4C2CAF0CC75CEFCD6F0D860DE88E024E490EA30EC805608580459045B045C115D905F01852077
:4007000087458E0191039304951397C499139A019B4C9D8A9F54A780AB88B001B130B30FB5C8B902BBA8BE01C005C504C9FFCA07CBFFCC40CD20CEF0CF05D008D418D604C6
:40074000D804D904DA04DB04DC31DD33DF01E040E1A8E240E3200120020104400520086009200AA00B100C400F1812041420150116051F01248A25482604271828602920F2
:400780002C2832503680371A3A053E084C204E024F04560858105A405B045E026002611062606320640467826F0378047A107D017E40860887408E40904091809308948ACF
:4007C00096A0970498109B049C429D309E4D9F01A04CA281A304A420A569A624A702A848B010B540C0C3C2EFC4F2CA67CCFCCE43D210D68ED8BED804D904DC11DF010211A2
:4008000005940640086009200AA00C060E051204160217291E861F1426802718286029202A102C282F023250340236A43A053D023E083F504480450447104A084B204C016C
:400840004E084F0854405CC08D8490409201935094089724980499049A029B249D909E489F01A006A104A548A6C0A702AA01AB04AEA0B016B104C0F5C2FFC4F2CA77CCFC87
:40088000CEF3D0E0D230E080E202E601EA20EE04030C09300BC30D400F1115F3170819F31B0429802B222D512FA2310F33F03B0259045C305F018004847C850286828808F8
:4008C0008D018EC39104920C943C950196C198CF99029A309CFFA004A208A410A501A830A901AC20AD02B070B23FB302B4B0B504B701BA28BF50C032C106C50BC7ECC8315C
:40090000C9FFCAFFCBFFCEF0CF44D00CD602D713D804D904DA04DB04DC33DD33DF01E6C0EA40EB020594064009400A010C140E811508160217211C401D041E081F08210180
:40094000235025042620270229102B022C102D402F1830283404361539023A403B103D84450846084C044F08540455025F026C286D446E20741076027720830485028B0425
:40098000C0F0C2F0C4F0CA7CCCE6CE5DD060D220D680E410E6224012410449FF4AFF4BFF4DA04F015018580459045A045C115F016040628064406540668068406A806C40A0
:4009C0006D206E80830689018C02930897089C029D04A601A908AC02B102B201B301B402B504B708B820BE10BF54C012C104C52CC640C73EC83BC9FFCAFFCBFFCDAFCE0719
:400A0000CF01D018D280D40FD804D904DA04DB04DF05E040E280E440E540E680E840EA80EC40ED20EE80001001840202054008400A080B020F021082160217041D201F0886
:400A4000242025802748284029802F083082320435013744381039043D203E0241A0430145A047014F06560A57105D105E415F086608670475017C20801089108B019010FA
:400A8000910492499302982099409B059E02A082A110A202A711A802AA01B0C0B201C087C283C4A9CA29CCDBCEA6D0BDD6F0D860DE20E880EA06EC20034007100B010C044F
:400AC0000F201208131E151C1601191C1C041D101E0220082104230824022502280929042B082F023004310232083301340135403602373C38023E543F01540F58045904B9
:400B00005B045F018A018E019401A001A601A801AC01B601D608D804D904DB04DC11DD90DF0100100201060208080D020F2210811114160817191A021D221E211F022440B4
:400B4000268027192A012D012E282F0230813204342036083741381039043B023D803F2A58405C405D0A5E2062408018812082408301840185148606882089488D1091014A
:400B800099429A209B449E40A140A208A304A680A901AA08AF01B050C083C2B4C47FCAF1CCFBCEF7D6F8D808E203E410E60FEA10EC08070109010D011101150121012B013C
:400BC0003101580459045C115F01820184018A088B028E048F0190409280960298109A209C02A004A408A820AA10AC80AE40B0FFB502B701BE01D602D73AD804D904DB0C28
:400C0000DC10DD10DF0100A00215038005200601081109200AA10C410D20100A110513401604170818402008212022402780285129202B802D202F80321034013708391040
:400C40003A053B403CA85B04601062106304680A6915720173047940811082508440852087809010914096A097029B449C419D209E05A520AD08B30EB620B740C0CFC2DF34
:400C8000C46FCAAFCCC4CE7FD602D802DE08EA10ECA002040601070208080A200E10102014221A201E022021230126082A202C242F04302031043302341F350138203E1016
:400CC0005401580459045B0C5C115D105F018501860489018A03900391019401960298039C03A101A403A501AB01AC03AF01B001B202B501B604D804D904DC11DF010060DD
:400D00000101025005200614084109200A210D300E020F58110412861401170819211D081E021F8120A0221623582510284029202A402C112D202F803011329433803602E1
:400D400039243B403C203F085B407940810185089040914592019620970298019A109B409D209F08A120A450A510A780A920AF80B010C06FC2FFC4AFCAFDCC8FCE6ED608A3
:400D8000DE08E006E820EC20EE80102016803180320237423B823E808702C430CCF0CE70E6400220050231083310372051885E086204670483408602920297809D049F4027
:400DC000A580A602A820A904AB01AE01C030CC70D680D8C0E240E680E880EC80EE60132051085A045E0461028502860487408F109202978499029A109D049E049F30A58041
:400E0000A604A708B210B308B620C440D420D6C0D840E25019041D088204920297049A109D049E04A588A604A708A902C630E620EC20784086018D10DC01E40801800B20C0
:400E40002320551081018408884096029C40A110A780AB80C002C208C802D402E0018D8096029980A408A501A780B310B720E602EA04EE0809010A020C0882019602A408E2
:400E8000A501A780C20E03080508208082048D089202970499049A109E04A108A708B580C060C840E28056105A0265047F028302920299049A10AF04B040B108D440D64001
:400EC000D880DE20E220EA401F80340158105B0862016680672093209A01A780B310C601CC01D401D603D803E804830886809E809F08B011E804EC04100311011A031B016F
:400F00001C0200AB01FF100A0001080E060061030000106000002110020000200701600661000640670C000308001000210000080600000C04200040180040700770200FDA
:400F4000080020800000001463050400020C0E0005FFFFFF62A0F0410C000000000000000404040033030001000000000000400200103010001010120000000000000000E5
:400F800000000000000000000B01000000000000090109010B010A000300000000E0E000001C1C001C0000004000060000000000C00000000000000000F4F4000800140AD0
:400FC0000A00080000000000007B7B0038000000000100000000000000000000000000000000000000000000000000000000000000000000000000000000000000000000B0
:4010000000000000000000000000000000000000000000000000000000000000000000000000000000000000000000000000000000000000000000000000000000000000B0
:401040000000000000000000000000000000000000000000000000000000000000000000000000000000000000000000000000000000000000000000000000000000000070
:401080000000000000000000000000000000000000000000000000000000000000000000000000000000000000000000000000000000000000000000000000000000000030
:4010C00000000000000000000000000000000000000000000000000000000000000000000000000000000000000000000000000000000000000000000000000000000000F0
:0200000490006A
:0400000000004005B7
:0200000490105A
:04000000BC90ACAF55
:0200000490303A
:02000000D10627
:0200000490402A
:4000000000000000000000000000000000000000000000000000000000000000000000000000000000000000000000000000000000000000000000000000000000000000C0
:400040000000000000000000000000000000000000000000000000000000000000000000000000000000000000000000000000000000000000000000000000000000000080
:400080000000000000000000000000000000000000000000000000000000000000000000000000000000000000000000000000000000000000000000000000000000000040
:4000C0000000000000000000000000000000000000000000000000000000000000000000000000000000000000000000000000000000000000000000000000000000000000
:0200000490501A
:0C00000000012E16106900012E2BE16F8C
:00000001FF