:400000000080002011000000851600008516000080B500AF024A034B1B68136001F03CFBBC760040FA46004010B5054C237833B9044B13B10448AFF300800123237010BDA9
:400040005881FF1F000000008C370000084B10B51BB108490848AFF300800848036803B910BD074B002BFBD0BDE81040184700BF000000005C81FF1F8C370000C880FF1F5C
:40008000000000002DE9F04F8DB000AF404B1B78DBB2002B74D102F09DFA0346FB62002002F0AAFA02F01CFB0346BB62002002F029FBFB6A7B62BB6A3B627B6A002BB8BFCF
:4000C0005B42FB613B6A002BB8BF5B42BB61FA69BB691344DA0F13445B107B617A6A3B6A1344002B01DB012301E04FF0FF333B617B6919464FEAE1720B461446DB1844EB0D
:4001000004045B1844EB02044FEA840B4BEA937B4FEA830A53465C465B1844EB0204E60046EA5376DD005B1944EB06044FEAC40949EA53794FEAC30843464C465B1844EB2C
:400140000204C7E90234D7E9023413F5FA7044F100014FF47A724FF0000303F00FF903460C467B603B69002B02DA7B685B4200E07B683B60074B1A683B681344054A1360FA
:4001800002F056FD00BF3437BD46BDE8F08F00BF7A81FF1F7C81FF1F80B582B000AF0346FB80FB880A2B02D84FF0000310E0FB88632B02D94FF07E530AE0FB880A3B18460C
:4001C00002F09CFE03460449184602F09FFF034618460837BD4680BD0000B44280B588B000AFF860B9607A60002000F00DFD0346FB83012000F008FD0346BB83022000F0DC
:4002000003FD03467B83032000F0FEFC03463B83042000F0F9FC0346FB82052000F0F4FC0346BB82FB68002B02D0FB683A8B1A80BB68002B02D0BB68FA8A1A807B68002B78
:4002400002D07B68BA8A1A80FB8B0A2B04D9FB8B632B01D8012200E000221E4B1A70BB8B0A2B04D9BB8B632B01D8012200E00022194B1A707B8B0A2B04D97B8B632B01D8B1
:40028000012200E00022154B1A703B8B0A2B04D93B8B632B01D8012200E00022104B1A70FB8A0A2B04D9FB8A632B01D8012200E000220C4B1A70BB8A0A2B04D9BB8A632B6D
:4002C00001D8012200E00022074B1A7000BF2037BD4680BD7481FF1F7581FF1F7681FF1F7781FF1F7881FF1F7981FF1F80B584B000AFF860B9607A60B968F86802F0F0FF88
:400300000346002B01D0BB6809E07968F86803F005F80346002B01D07B6800E0FB6818461037BD4680BD00BF90B591B000AFF860084611461A4603467B810B463B811346EF
:40034000FB807B891846FFF727FF03464FF07F51184602F027FE0346BB633B891846FFF71BFF03464FF07F51184602F01BFE03467B63FB881846FFF70FFF03464FF07F51F9
:40038000184602F00FFE03463B63796BB86B02F001FD0346396B184602F0FCFC0346FB6201231C467849F86A02F0B8FF0346002B01D100231C4687F82B404FF00003FB6380
:4003C00097F82B30002B15D04FF00001786B02F0E9FD0346B96B184602F0DAFC0346396B184602F0D7FC0346F96A184602F08EFE0346FB63FB6B7B6297F82B3083F0010392
:40040000DBB2002B2AD0FB689B686049184602F0C1FC03461A46FB689A60FB689B684FF07A51184602F070FF0346002B09D0FB681B685749184602F0B5FD03461A46FB68D8
:400440001A60FB685B68534A53491846FFF74EFF0346184602F06CFF034691E0FB684FF000029A60FB681C684849786A02F09AFD03461946204602F08DFC0346474A4849CF
:400480001846FFF733FF38624649786A02F08AFD03461C463B6A1946184602F07BFC03461946204602F076FC0346FB61394A3A49F869FFF71BFFB86101231C463A49B869EB
:4004C00002F022FF0346002B01D100231C46FC7501231C463549B86902F00CFF0346002B01D100231C46BC75FB7D002B14D03B6A1946184602F04EFC03461C46FB681B68D9
:400500001946184602F046FC03461946204602F005FF0346002B1AD1BB7D002B14D03B6A1946184602F036FC03461C46FB681B681946184602F02EFC03461946204602F030
:40054000CFFE0346002B02D1FB683A6A1A60FB68BA695A604FF00001B86902F0D5FE0346002B02D04FF07C5301E04FF03F43B969184602F00FFC0346184602F0D9FE034654
:4005800018464437BD4690BD0AD7A33D6F12033C1F856B3F00007041000070C10000F0410000F0C100009041E7FB6F41E7FB6FC1F0B59DB000AF0121012000F093FB62B690
:4005C00001F0C0F90A2001F0D7FD01F0E9FE01F0E9FF02F06DF8002002F00EF8002002F091F802F077FA02F001FBA84802F04EFB01F0BCFE01F0F6FD01F0ECFEC82001F0E8
:4006000085FEC82001F07AFF002000F0A3FB0021002000F067FB00F0D3FC9D4B00221A701423FB66FB6E002B01DA0023FB66FB6E642B01DD6423FB664FF000033B644FF0E8
:4006400000037B644FF00003BB644FF47A7001F093FD6FF00901642000F09AFB282001F08BFD002000F076FB8A4B1C4607F10C0604F1300E35462346186859689A68DB68F7
:400680000FC5103410367445F4D1334622461188927819809A70322387F85F30002387F86B3000237B66002387F86330002387F86230002387F86130002387F86030764B04
:4006C0001B78DBB2002B07D0002000F043FB0121012000F007FB92E200237B8100233B810023FB80BA1D07F1080107F10A031846FFF774FD694B1B88002B05D0674B1B88F7
:40070000013B9AB2654B1A8097F96B3007F17002134413F8643C002B48D179893A89FB8807F14000FFF700FEB865B96DF86E00F02FFB002000F068FA0346A7F856300120D4
:4007400000F062FA0346A7F85430B7F856300A2B05D9B7F85630632B01D8012200E000224F4B1A70B7F854300A2B05D9B7F85430632B01D8012200E000224A4B1A70484BDD
:400780001A78484B1B78134387F8533097F85330002B06D0444B1B78002B02D1012387F86330414A97F853301370C0E197F96B3007F17002134413F8643C012B7AD1344B72
:4007C00001221A70324B1B78DBB2012B04D0304B1B78DBB2022B0BD1344B1B78002B07D12B4B1B78DAB2314B1A70314B0D221A80274B1B78DBB2002B09D12C4B1B78002B4A
:4008000005D02A4B00221A70294B00221A80204B1B78DBB2012B04D01D4B1B78DBB2022B28D1234B1B88002B06D0214B1B88013B9AB21F4B1A801DE0154800F0E1FB144B27
:400840001B78DBB2002B11D14FF000033B644FF000037B644FF00003BB64144B00221A700E4B32221A80012387F86230082001F083FCC4E1094B1B88002B00F05881074BE7
:400880001B88013B9AB2054B1A8050E1850000007A81FF1F983700007B81FF1F8481FF1F7481FF1F7581FF1F8681FF1F8281FF1F8081FF1F97F96B3007F17002134413F8C5
:4008C000643C022B66D18D4B02221A708B4B1B78DBB2012B04D0894B1B78DBB2022B0BD1874B1B78002B07D1844B1B78DAB2844B1A70844B0D221A80804B1B78DBB2002B1E
:4009000009D17F4B1B78002B05D07D4B00221A707C4B00221A80794B1B78DBB2012B04D0764B1B78DBB2022B28D1764B1B88002B06D0744B1B88013B9AB2724B1A801DE0FB
:400940006E4800F05DFB6D4B1B78DBB2002B11D14FF000033B644FF000037B644FF00003BB64674B00221A70674B32221A80012387F86230082001F0FFFB40E1624B1B887A
:40098000002B00F0D480604B1B88013B9AB25E4B1A80CCE097F96B3007F17002134413F8643C032B6FD1554B03221A70534B1B78DBB2012B09D0514B1B78DBB2022B04D02F
:4009C0004E4B1B78DBB2032B0BD14D4B1B78002B07D14A4B1B78DAB2494B1A70494B0D221A80464B1B78DBB2002B09D1444B1B78002B05D0424B00221A70424B00221A807D
:400A00003E4B1B78DBB2012B09D03C4B1B78DBB2022B04D0394B1B78DBB2032B28D1394B1B88002B06D0374B1B88013B9AB2354B1A801DE0314800F0E3FA304B1B78DBB2C8
:400A4000002B11D14FF000033B644FF000037B644FF00003BB642A4B00221A702A4B32221A80012387F86130082001F085FBC6E0254B1B88002B5AD0234B1B88013B9AB20E
:400A8000214B1A8053E097F96B3007F17002134413F8643C052B3DD17B6E002B03D11B4B1B6896337B66194B1A687B6E9A4201DB012200E00022164B1A70154B1B78DBB296
:400AC000002B0DD0002000F045F90121012000F009F9012387F86030012002F025F926E079893A89FB8807F14000FFF71DFCF864F96CF86E00F04CF919E000BF7A81FF1F45
:400B00008281FF1F8081FF1F8481FF1F7C81FF1F7B81FF1F97F96B3007F17002134413F8643C062B03D10121012000F0DBF897F96B300D2B0BD097F96B30172B07D097F969
:400B40006B301F2B03D097F96B302C2B03D14FF4FA6001F011FB97F96B30042B02D1284B32221A8097F96B300A2B02D1244B32221A8097F96B30232B02D1214B32221A8009
:400B800097F96B30262B02D11D4B32221A8097F96B302E2B02D11A4B32221A8097F96330012B0BD097F96230012B07D097F96130012B03D097F96030012B1DD197F96B2022
:400BC00097F95F309A4203DB0E4B01221A7005E097F86B300133DBB287F86B30002387F86330002387F86230002387F86130002387F8603000237B66082001F0BDFA5EE547
:400C00008481FF1F7B81FF1F80B586B000AF0346FB7140F6FF73FB820023BB8200F0AAFE00233B6115E0FB799BB2184600F0AEFE0346FB81FA89FB8A9A4201D2FB89FB829F
:400C4000FA89BB8A9A4201D9FB89BB823B6901333B613B6940F2A3629342E4DD00F090FEBA8AFB8AD31A9BB218461837BD4680BD80B483B000AF78607B68642B01DD64231D
:400C800007E07B6813F1640F02DA6FF0630300E07B6818460C37BD4680BC704780B483B000AF78607B6813F1640F02DA6FF063037B607B68642B01DD64237B607B68C822B5
:400CC00002FB03F3064A82FB03129211DB17D31A9BB264339BB218460C37BD4680BC70471F85EB5180B584B000AF03460A46FB711346BB710023FB73FB79002B03D0FB7BDA
:400D000043F00103FB73BB79002B03D0FB7B43F00203FB73FB7B184600F05AFE00BF1037BD4680BD80B485B000AF78607B686B2202FB03F3064A82FB03125211DB17D31AE7
:400D4000FB60FB6818461437BD4680BC704700BF1F85EB5180B582B000AF78607868FFF787FF78607B685B421846FFF797FF0346DBB2184601F0DAFA7868FFF78FFF034645
:400D8000DBB2184601F0CAFB00BF0837BD4680BD80B584B000AF786039607A683B6813441846FFF765FFF8607A683B68D31A1846FFF75EFFB860F868FFF7B4FF03461846F4
:400DC000FFF756FFF8607B68002B0FDDFB68002B04DDFB680E2B01DC0F23FB60BB68002B04DDBB680E2B01DC0F23BB60FB685B421846FFF753FF0346DBB2184601F096FAD1
:400E0000B868FFF74BFF0346DBB2184601F086FB00BF1037BD4680BD80B400AF00BFBD4680BC704780B400AF034B00221A6000BFBD4680BC704700BF9081FF1F80B483B0F7
:400E400000AF00237B6000233B607B68002B02DA7B685B427B603B68002B02DA3B685B423B607A683B681A44044B1B681344034A136000BF0C37BD4680BC70479081FF1F4A
:400E800080B586B000AF18237B617B695B423B617B69FB603A69FB681344DA0F13445B10BB60FA683B69D31ADA0F13445B107B607968B868FFF76CFF00BF1837BD4680BD59
:400EC00080B586B000AF18237B617B693B617B695B42FB603A69FB681344DA0F13445B10BB60FA683B69D31ADA0F13445B107B607968B868FFF74CFF00BF1837BD4680BD39
:400F000080B586B000AF2A237B617B693B617B695B42FB603A69FB681344DA0F13445B10BB60FA683B69D31ADA0F13445B107B607968B868FFF72CFF00BF1837BD4680BD06
:400F400080B582B000AF7860FFF766FFFFF76AFF7B68002B02D07B6800221A70134B00221A70134B00221A70124B00221A60124B00221A60114B00221A800020FFF7EAFE3E
:400F80004FF4FA7001F0F8F80020FFF7E3FE6FF009016420FFF7FCFE3C2001F0EDF80020FFF7D8FE00BF0837BD4680BD8881FF1F8981FF1F8C81FF1F9081FF1F9481FF1F97
:400FC00080B400AF094B00221A70094B00221A70084B00221A60084B00221A60074B00221A8000BFBD4680BC704700BF8881FF1F8981FF1F8C81FF1F9081FF1F9481FF1FD2
:4010000080B584B000AF78607B68002B03D07B681B78DBB200E00023FB735C4B1B78022B77D0032B00F0A380002B40F0A480FB7B012B22D10020FFF78DFE00210020FFF790
:4010400051FE642001F098F8FFF7ECFE504AFB7B1370FB7B012B02D14E4B1B6801E04E4B1B684E4A13604E4B00221A604D4B00221A80464B02221A7081E0FB7B022B22D151
:401080000020FFF767FE00210020FFF72BFE642001F072F8FFF7C6FE3D4AFB7B1370FB7B012B02D13B4B1B6801E03B4B1B683B4A13603B4B00221A603A4B00221A80334BFB
:4010C00002221A705BE0FB7B032B58D10020FFF741FE00210020FFF705FE642001F04CF8FFF7A0FE2A4AFB7B1370FB7B012B02D1284B1B6801E0284B1B68284A1360284B57
:4011000000221A60274B00221A80204B02221A7035E01F4B1B78012B02D1FFF7B1FE0CE01B4B1B78022B02D1FFF7CAFE05E0184B1B78032B01D1FFF7E3FEFFF77FFE194BEA
:401140001B8801339AB2174B1A80164B1B881C2B03D97868FFF7F4FE14E0114B1A680F4B1B689A420DDB094B03221A7009E07868FFF7E6FE06E07868FFF7E2FE02E000BF0B
:4011800000E000BF00BF1037BD4680BD8881FF1F8981FF1FCC80FF1FD080FF1F8C81FF1F9081FF1F9481FF1F80B582B000AF786039603A680021786802F0DFFA00BF0837A3
:4011C000BD4680BD80B584B000AFF860B9607A607A68B968F86802F0C5FA00BF1037BD4680BD00BF80B483B000AF0346FB71FEE780B487B000AF7860396000233B61002316
:401200007B6127E07B699B007A6813441B68BB60BB68FB73BB6823F0FF03BB6014E03B695B003A6813441B781A46BB68134419463B695B003A6813445B780B703B690133BB
:401240003B61FB7B013BFB73FB7B002BE7D17B6901337B617B692B2BD4D900BF1C37BD4680BC704780B582B000AF404B04221A803F4B18221A703F4B3A221A803E4B182284
:401280001A703E4B81221A803D4B18221A703D4B40F22B121A803C4B18221A703B4B00221A803B4B1B221A703A4B45F6BF521A80394B19221A70394B06221A70384B522246
:4012C0001A70384B384A1278D2B21A70374B40F619121A80364B41F251221A800023FB7019237B6014E0FB785B00DAB2314B1B78DBB203F00103DBB21343DBB203F003039A
:40130000FB704FF4F07001F02FFD7B68013B7B607B68002B02D0FB78032BE4D17B68002B02D10320FFF75EFF234B4FF480721A80214B07221A70214B00221A70204B4822B2
:401340001A701D4B00221A701E4B00221A701E4B02221A701D4A1D4B1B78DBB243F03F03DBB2137000BF0837BD4680BD8040004082400040844000408640004088400040DD
:401380008A4000408C4000408E400040904000409240004094400040964000400043004000420040A14600400F010049224200402042004025420040044000400640004041
:4013C000084000400940004001400040A243004080B582B000AF244B1B78FB71234B1B78BB71234B1B787B71224AFB7903F00703DBB21370204AFB791B09DBB213701B4A34
:40140000BB7943F00303DBB21370194A7B7943F00303DBB21370194BE0221A70184B34221A70184B40221A70174B40221A70174BE0221A70164B47221A70164B20221A7050
:40144000154B40221A700A2000F0B8FE084A7B791370064ABB791370104B44221A7000BF0837BD4680BD00BFCF010049F8460040F94600406E5800406F5800400D51004077
:401480001D510040095900400B590040005B0040285B00402B5B0040585B00407658004080B586B000AF72B6584B61221A70FFF7D9FE564B01221A70554A554B1B78DBB2A7
:4014C00043F00403DBB213700023FB7513E0FA7D13465B0013445B004E4A13443B613B691A683B699B889BB219461046FFF75CFEFB7D0133FB75FB7D062BE8D90023FB755C
:401500001CE0FA7D13469B0013445B00424A1344FB60FB681B68BB60FB685B687B60FB681A7A5B7A1B0213437B807B881A467968B868FFF747FEFB7D0133FB75FB7D002BBA
:40154000DFD036494FF09040FFF752FE04213448FFF72AFE042233493348FFF733FE334B334A1A60334B344A1A60344A334B1B78DBB243F00203DBB21370314A304B1B780D
:40158000DBB243F00203DBB213702E4A2D4B1B78DBB243F04003DBB213702B4A2A4B1B78DBB243F01003DBB21370082227492848FFF708FE0A2227492748FFF703FE0A222C
:4015C00026492748FFF7FEFD082226492648FFF7F9FD0A2225492648FFF7F4FD082225492548FFF7EFFD254A244B1B78DBB243F00803DBB21370FFF7EBFE0E221149204836
:40160000FFF7E0FD00BF1837BD4680BD00480040E8460040CC370000F8370000B000004800760040F80F004808760040D80001400404004458040140040404840350014080
:4016400013500140A0430040C2430040BC0F004802510040C40F0048C0510040D00F0048F0510040DC0F004812510040E40F004820510040F00F0048325100402243004033
:40168000B043004080B500AF02F040F803461B680C2B00D1FEE7FEE780B586B000AF224B7B61224B3B61204B7B6135E03B691B68FB603B695B68BB603B699B683B6000231A
:4016C0007B600CE0FB681A68BB681A60BB680433BB60FB680433FB607B6804337B607A683B689A42EED13B69DB683B6000237B6008E0BB6800221A60BB680433BB607B68A3
:4017000004337B607A683B689A42F2D13B6910333B617B69013B7B617B69002BC6D101F0FBFFFEF745FFFEE7010000002838000080B582B000AF194B194A1A60194A194BC6
:401740001B6843F40073136000237B600FE07B68032B04D8144A7B6852F8233000E0134B13497A6841F822307B6801337B607B682F2BECD90F4B1B78DAB20F4B1A700F4B5F
:401780000B4A1A60FFF78CFE00F0CEFA0C4B00221A6000BF0837BD4680BD00BF0CED00E00004FA0514ED00E000000000851600000080FF1FBC760040C480FF1F08ED00E093
:4017C000C080FF1F80B500AF41F6FF734FF480420121022000F020FA03461A460A4B1A7041F6FF7341F6FF7201210C2000F046FA03461A46054B1A70054800F071FA002009
:4018000000F080FA00BF80BD9C81FF1F9D81FF1FC519000080B582B000AF414B1B78184600F0F6FA3F4B1B78184600F0F1FA3E4B1B78FF2B05D100F0F7FB03461A463A4BF8
:401840001A70394B1878384B1A7806230C2100F019FC354B1B78354A92B245F6A231184600F050FC2E4B1A782F4B1B781946104600F06CFB2E4B1B78FF2B05D100F0D4FBED
:4018800003461A462A4B1A70294B1878284B1A7807230C2100F0F6FB254B1B78234A91B2244A92B2184600F02DFC1E4B1A78204B1B781946104600F049FB194B1B78012168
:4018C000184600F05FFA174B1B780121184600F059FA01F051FA0346FB71174A164B1B78DBB243F02003DBB21370FB79184601F047FA124A114B1B78DBB243F00103DBB2B0
:4019000013700E4A0D4B1B78DBB243F00203DBB213700B4B01221A6000BF0837BD4680BD9C81FF1F9D81FF1FD480FF1FA081FF1FD580FF1FB481FF1F9A6500407864004092
:4019400080E200E080B500AF084B1B68002B04D1FFF738FF054B01221A6000F049F8FFF759FF034B1B7800BF80BD00BF9881FF1F6D64004080B500AF00F0EEF800BF80BD38
:4019800080B500AF00F0F8F800BF80BD80B483B000AF0346FB80FB88C3F10503074A32F913309AB2064B1B881BB29BB2D31A9BB21BB218460C37BD4680BC7047B481FF1F44
:4019C000C281FF1F80B400AF00BFBD4680BC704780B483B000AF0346FB71044AFB79137000BF0C37BD4680BC704700BF7D64004080B500AF064B1B78002B04D100F00AF84C
:401A0000034B01221A7000F01BF800BF80BD00BFAC81FF1F80B500AF074A074B1B78DBB243F00603DBB213700C2000F06BF8034B00221A8000BF80BD09590040C881FF1F21
:401A400080B582B000AF01F097F90346FB71254A244B1B78DBB243F00203DBB21370224A214B1B78DBB243F00203DBB213701F4B1B78BB71BB7943F00203BB71BB7943F06C
:401A80000103BB71194ABB791370194B18221A70184A184B1B78DBB243F04003DBB21370144A144B1B78DBB223F00303DBB21370114BC8221A70114B02221A70104A104BB4
:401AC0001B78DBB243F00803DBB213700A2000F075FBFB79184601F053F900BF0837BD4680BD00BFAB430040BB4300400B5900400E5900400D590040085900401646004048
:401B00002F5B004080B584B000AF0346FB71FB790A2B07D00C2B02D0082B06D008E0C223FB730BE08223FB7308E04223FB7305E0C223FB73002000F013FB00BF054AFB7BAE
:401B40001370FB79184600F027F800BF1037BD4680BD00BF0A59004080B400AF054A054B1B78DBB243F00103DBB2137000BFBD4680BC70470859004080B400AF054A054B98
:401B80001B78DBB223F00103DBB2137000BFBD4680BC70470859004080B584B000AF0346FB71FB790A2B08D00C2B02D0082B08D00BE04FF48053FB600DE04FF48063FB605C
:401BC00009E04FF48073FB6005E00023FB60002000F0C6FA00BF0C4B00221A80FB6842F2107202FB03F303F6C413084A82FB0312D212DB17D31A064A1360064B00221A8013
:401C000000BF1037BD4680BDC081FF1FAD8BDB68C481FF1FC281FF1F90B585B002AF0446084611461A462346FB710346BB710B46BB8013467B80104B01221A700E4B18782B
:401C4000BA79F9790023019300230093012300F09BF9094B1B787A88B988184600F03AF9054B1B780221184600F002F9024B1B7818460C37BD4690BDD680FF1F90B585B0F1
:401C800002AF0446084611461A462346FB710346BB710B46BB8013467B80104B00221A700E4B1878BA79F9790023019300230093002300F069F9094B1B787A88B9881846FB
:401CC00000F008F9054B1B780221184600F0D0F8024B1B7818460C37BD4690BDD780FF1F80B485B000AF7860054B1B68FB60FB6840337A681A6000BF1437BD4680BC704741
:401D000008ED00E080B483B000AF0346FB71054AFB795B01DBB2137000BF0C37BD4680BC704700BF00E400E080B483B000AF134B7F221A70124B80221A707F23FB710CE037
:401D4000FB79DB0003F1804303F5F043FA79013AD2B21A70FB79013BFB71FB79002BEFD1FB79DB0003F1804303F5F04300221A7000BF0C37BD4680BC704700BFD980FF1FF0
:401D8000D880FF1F80B485B000AF03460A46FB711346BB710123FB60FB79172B2FD8BB79002B0ED0FB791A01184B1344FA791101164A0A441278D2B242F02002D2B21A70A6
:401DC0000DE0FB791A01114B1344FA7911010F4A0A441278D2B222F02002D2B21A70FB791A010A4B1344FA791101084A0A441278D2B242F00102D2B21A700023FB60FB68A6
:401E000018461437BD4680BC704700BF1070004080B485B000AF0346FB710123FB60FB79172B1DD8FB791A01104B1344FA7911010E4A0A441279D2B242F00402D2B21A71CB
:401E4000FB791A01094B1344FA791101074A0A441278D2B242F00102D2B21A700023FB60FB6818461437BD4680BC70471070004080B485B000AF03460A46FB711346BB71D1
:401E80000123FB60FB79172B1BD8FB791A01104B13441B78DBB223F00E03FB72FB791A010B4B1344BA795200D2B252B202F00E0251B297F90B200A4352B2D2B21A7000237D
:401EC000FB60FB6818461437BD4680BC704700BF1070004080B485B000AF0346FB710B46BB8013467B800123FB60BB8841F6FF72934202D14FF40053BB807B8841F6FF72CB
:401F0000934202D14FF400537B80FB79172B17D8FB79DB0003F1804303F5EC430433BB60BB68BA881A80FB79DB0003F1804303F5EC430633BB60BB687A881A800023FB6087
:401F4000FB6818461437BD4680BC704780B485B000AF03460A46FB711346BB710123FB60FB79172B07D8FB791A01064B1344BA795A720023FB60FB6818461437BD4680BCAA
:401F8000704700BF1070004090B484B000AF0446084611461A462346FB710346BB710B467B7113463B710123FB60FB79172B34D8FB79DB0003F1804303F5EC43BA7902F056
:401FC0007F02D1B27A79D201D2B20A43D2B21A70FB79DB0003F1804303F5EC433A7E1201D1B23A7902F00F02D2B20A43D2B25A70FB79DB0003F1804303F5EC433A7F02F010
:402000000F02D2B29A70FB79DB0003F1804303F5EC430022DA700023FB60FB6818461037BD4690BC704700BF80B582B000AFFF23FB7100F0A1FE0346BB71104B1B78182B44
:4020400012D90F4B1B78FB710C4B1B78013BDAB20A4B1A70FB79DB0003F1804303F5F0431B78DAB2064B1A70BB79184600F088FEFB7918460837BD4680BD00BFD880FF1FD2
:40208000D980FF1F90B484B000AF0446084611461A462346FB710346BB800B46BB711346FB700123FB6097F90730002B23DBBB8823F47F6323F00F039BB2002B1BD1FB79F1
:4020C000DB0003F1804303F5F043BB60BB68BA881A80FB79DB0003F1804303F5F043BA799A70FB79DB0003F1804303F5F043FA78DA700023FB60FB6818461037BD4690BCD9
:40210000704700BF80B485B000AF0346FB710B46BB8013467B800123FB6097F90730002B17DBFB79DB0003F1804303F5F0430433BB60BB68BA881A80FB79DB0003F1804391
:4021400003F5F0430633BB60BB687A881A800023FB60FB6818461437BD4680BC704700BF80B483B000AF0346FB7101BE00BF0C37BD4680BC704700BF80B582B000AF7860B3
:4021800008E00C4B1B68184600F0EEFD7B68A3F500437B607B68B3F5004FF2D8064B1B687A6802FB03F3184600F0DEFD00BF0837BD4680BDEC80FF1FE480FF1F80B582B064
:4021C00000AF0346FB80FB88054A127802FB03F3184600F0C9FD00BF0837BD4680BD00BFE880FF1F80B500AF064B1B78002B04D100F00AF8034B01221A7000F063F800BFC7
:4022000080BD00BFAD81FF1F80B582B000AF284A274B1B78DBB243F00203DBB21370254B1B78DBB223F07003FB71224AFB7943F01003DBB21370204A1F4B1B78DBB223F035
:402240003003DBB213701C4A1B4B1B78DBB243F03003DBB21370184A174B1B78DBB223F00F03DBB21370144A134B1B78DBB243F00F03DBB21370FF2000F048F8002000F010
:4022800055F8002000F062F80C4A0C4B1B78DBB243F00103DBB21370094A094B1B78DBB243F00103DBB2137000BF0837BD4680BD004F0040024F00400B4F0040A343004027
:4022C000014F004080B400AF0D4A0D4B1B78DBB243F00103DBB213700A4A0A4B1B78DBB243F00103DBB21370074A074B1B78DBB243F00103DBB2137000BFBD4680BC704786
:40230000A3430040B3430040004F004080B483B000AF0346FB71044BFA7992B21A8000BF0C37BD4680BC7047044F004080B483B000AF0346FB71044BFA7992B21A8000BF92
:402340000C37BD4680BC7047064F004080B483B000AF0346FB71044AFB79137000BF0C37BD4680BC704700BF034F004080B400AF094A094B1B78DBB243F00803DBB213703E
:40238000064A064B1B78DBB243F00803DBB2137000BFBD4680BC7047A2430040B243004080B400AF094A094B1B78DBB243F00103DBB21370064A064B1B78DBB243F0010316
:4023C000DBB2137000BFBD4680BC7047A2430040B243004080B500AF064B1B78002B04D100F00AF8034B01221A7000F063F800BF80BD00BFAE81FF1F80B582B000AF284A2E
:40240000274B1B78DBB243F00203DBB21370254B1B78DBB223F07003FB71224AFB7943F01003DBB21370204A1F4B1B78DBB223F03003DBB213701C4A1B4B1B78DBB243F0A1
:402440003003DBB21370184A174B1B78DBB223F00F03DBB21370144A134B1B78DBB243F00F03DBB21370FF2000F048F8002000F055F8002000F062F80C4A0C4B1B78DBB2EC
:4024800043F00203DBB21370094A094B1B78DBB243F00103DBB2137000BF0837BD4680BD0C4F00400E4F0040174F0040A34300400D4F004080B400AF0D4A0D4B1B78DBB236
:4024C00043F00203DBB213700A4A0A4B1B78DBB243F00203DBB21370074A074B1B78DBB243F00103DBB2137000BFBD4680BC7047A3430040B34300400C4F004080B483B066
:4025000000AF0346FB71044BFA7992B21A8000BF0C37BD4680BC7047104F004080B483B000AF0346FB71044BFA7992B21A8000BF0C37BD4680BC7047124F004080B483B095
:4025400000AF0346FB71044AFB79137000BF0C37BD4680BC704700BF0F4F004080B400AF00BFBD4680BC704780B582B000AF0F2000F06AF800F05AF800F0FEFB0346FB714E
:40258000074A074B1B78DBB243F01003DBB21370FB79184600F0F4FB00BF0837BD4680BD9B64004080B500AF00F034F94FF4004000F05EF9064B1B78002B04D1FFF7CEFF62
:4025C000034B01221A70FFF7CFFF00BF80BD00BFAF81FF1F80B582B000AF00F059F90346FB80FB88A3F500439BB2BB80B7F9043018460837BD4680BD80B584B000AF0346EF
:40260000FB80B7F90630002B04DBFB88A3F50043FB8103E0FB88A3F50043FB81FB89184600F026F900BF1037BD4680BD80B400AF044B1B78DBB203F00F03DBB21846BD461C
:4026400080BC70476B64004080B483B000AF0346FB71044AFB79137000BF0C37BD4680BC704700BF8B64004080B400AF00BFBD4680BC704780B582B000AF0F2000F06AF833
:4026800000F05AF800F078FB0346FB71074A074B1B78DBB243F01003DBB21370FB79184600F06EFB00BF0837BD4680BD9264004080B500AF00F086F94FF4004000F0B0F999
:4026C000064B1B78002B04D1FFF7CEFF034B01221A70FFF7CFFF00BF80BD00BFB081FF1F80B582B000AF00F0ABF90346FB80FB88A3F500439BB2BB80B7F904301846083795
:40270000BD4680BD80B584B000AF0346FB80B7F90630002B04DBFB88A3F50043FB8103E0FB88A3F50043FB81FB89184600F078F900BF1037BD4680BD80B400AF044B1B78A8
:40274000DBB203F00F03DBB21846BD4680BC70476264004080B483B000AF0346FB71044AFB79137000BF0C37BD4680BC704700BF8264004080B582B000AF1C4B1B78DBB256
:4027800023F00703FB71194AFB791370174B1B78DBB223F00303FB71144AFB79137000F0B3F84FF4004000F08FF84FF4004000F05FF8002000F040F800F04EF84FF400407A
:4027C00000F092F800F0D8FA0346BB71084A084B1B78DBB243F01003DBB21370BB79184600F0CEFA00BF0837BD4680BD7B6400409464004080B400AF054A054B1B78DBB28C
:4028000063F07F03DBB2137000BFBD4680BC70477B64004080B500AF064B1B78002B04D1FFF7A8FF034B01221A70FFF7E3FF00BF80BD00BFB181FF1F80B483B000AF03463D
:40284000FB71044AFB79137000BF0C37BD4680BC704700BF8464004080B400AF034B1B78DBB21846BD4680BC704700BF6464004080B483B000AF0346FB80044AFB8813801E
:4028800000BF0C37BD4680BC704700BF0C68004080B400AF044B1B78044B1B889BB21846BD4680BC704700BF066400408C68004080B400AF034B1B889BB21846BD4680BCFA
:4028C000704700BF8C68004080B483B000AF0346FB80044AFB88138000BF0C37BD4680BC704700BF4C68004080B483B000AF0346FB80044AFB88138000BF0C37BD4680BCC6
:40290000704700BF6C68004080B500AF01E0FFF7CFFFFFF7A1FF034603F04003002BF6D100BF80BD80B582B000AF1C4B1B78DBB223F00703FB71194AFB791370174B1B780C
:40294000DBB223F00303FB71144AFB79137000F0B3F84FF4004000F08FF84FF4004000F05FF8002000F040F800F04EF84FF4004000F092F800F000FA0346BB71084A084B12
:402980001B78DBB243F01003DBB21370BB79184600F0F6F900BF0837BD4680BD716400409164004080B400AF054A054B1B78DBB263F07F03DBB2137000BFBD4680BC70476C
:4029C0007164004080B500AF064B1B78002B04D1FFF7A8FF034B01221A70FFF7E3FF00BF80BD00BFB281FF1F80B483B000AF0346FB71044AFB79137000BF0C37BD4680BC2D
:402A0000704700BF8164004080B400AF034B1B78DBB21846BD4680BC704700BF6164004080B483B000AF0346FB80044AFB88138000BF0C37BD4680BC704700BF08680040ED
:402A400080B400AF044B1B78044B1B889BB21846BD4680BC704700BF046400408868004080B400AF034B1B889BB21846BD4680BC704700BF8868004080B483B000AF0346A4
:402A8000FB80044AFB88138000BF0C37BD4680BC704700BF4868004080B483B000AF0346FB80044AFB88138000BF0C37BD4680BC704700BF6868004080B500AF01E0FFF7D0
:402AC000CFFFFFF7A1FF034603F04003002BF6D100BF80BD80B400AF094A094B1B78DBB243F02003DBB21370064A064B1B78DBB243F02003DBB2137000BFBD4680BC704719
:402B0000A2430040B243004080B500AF214A214B1B78DBB203F00103DBB213701E4A1E4B1B78DBB223F00303DBB213701B4A1B4B1B78DBB223F03003DBB21370174A174B3B
:402B40001B78DBB243F03003DBB21370134A134B1B78DBB223F00F03DBB213700F4A0F4B1B78DBB243F00F03DBB213700C4A0C4B1B78DBB243F00103DBB21370042000F05F
:402B800063F8042000F072F8082000F041F800BF80BD00BF184F00401A4F0040234F0040194F004080B400AF0D4A0D4B1B78DBB243F00403DBB213700A4A0A4B1B78DBB2C1
:402BC00043F00403DBB21370074A074B1B78DBB243F00103DBB2137000BFBD4680BC7047A3430040B3430040184F004080B500AF064B1B78002B04D1FFF786FF034B012215
:402C00001A70FFF7CFFF00BF80BD00BFB381FF1F80B483B000AF0346FB71044AFB79137000BF0C37BD4680BC704700BF1B4F004080B400AF034B1B78DBB21846BD4680BCDA
:402C4000704700BF1B4F004080B485B000AF0346FB80FB88FB81044AFB89138000BF1437BD4680BC704700BF1C4F004080B483B000AF0346FB80044AFB88138000BF0C374A
:402C8000BD4680BC704700BF1E4F004080B582B000AF786000F03CF8786800F009F8072000F018F800F028F800BF0837BD4680BD80B485B000AF7860054B1B68FB60FB68D9
:402CC0008C337A681A6000BF1437BD4680BC704708ED00E080B483B000AF0346FB71054AFB795B01DBB2137000BF0C37BD4680BC704700BF13E400E080B400AF034B4FF4E8
:402D000000221A6000BFBD4680BC704700E100E080B400AF034B4FF400221A6000BFBD4680BC704780E100E080B485B000AF0346FB710B4B1B78DBB223F04003FB73084923
:402D4000FB799B01DBB203F04003DAB2FB7B1343DBB20B7000BF1437BD4680BC704700BF20510040000000000230800803D000BF01380046FCD17047EFF3108072B6704710
:402D800080F31088704700BF80F0004002E000BF81F0004142001FBF5FEA410392EA030F7FEA226C7FEA236C6AD04FEA1262D2EB1363C1BFD218414048404140B8BF5B4243
:402DC000192B88BF704710F0004F40F4000020F07F4018BF404211F0004F41F4000121F07F4118BF494292EA030F3FD0A2F1010241FA03FC10EB0C00C3F1200301FA03F1F3
:402E000000F0004302D5494260EB4000B0F5000F13D3B0F1807F06D340084FEA310102F10102FE2A51D2B1F1004F40EBC25008BF20F0010040EA03007047490040EB00000D
:402E400010F4000FA2F10102EDD1B0FA80FCACF1080CB2EB0C0200FA0CF0AABF00EBC25052421843BCBFD0401843704792F0000F81F4000106BF80F400000132013BB5E736
:402E80004FEA41037FEA226C18BF7FEA236C21D092EA030F04D092F0000F08BF0846704790EA010F1CBF0020704712F07F4F04D1400028BF40F00040704712F100723CBF80
:402EC00000F50000704700F0004343F0FE4040F4000070477FEA226216BF08467FEA23630146420206BF5FEA412390EA010F40F4800070474FF0000304E000BF10F000437E
:402F000048BF40425FEA000C08BF704743F0964301464FF000001CE050EA010208BF70474FF000030AE000BF50EA010208BF704711F0004302D5404261EB41015FEA010CC5
:402F400002BF84460146002043F0B64308BFA3F18053A3F50003BCFA8CF2083AA3EBC25310DB01FA02FC634400FA02FCC2F12002BCF1004F20FA02F243EB020008BF20F0E8
:402F80000100704702F1200201FA02FCC2F1200250EA4C0021FA02F243EB020008BF20EADC7070474FF0FF0C1CEAD0521EBF1CEAD15392EA0C0F93EA0C0F6FD01A4480EA2E
:402FC000010C400218BF5FEA41211ED04FF0006343EA501043EA5111A0FB01310CF00040B1F5000F3EBF490041EAD3715B0040EA010062F17F02FD2A1DD8B3F1004F40EB4D
:40300000C25008BF20F00100704790F0000F0CF0004C08BF49024CEA502040EA51207F3AC2BFD2F1FF0340EAC250704740F400004FF00003013A5DDC12F1190FDCBF00F033
:4030400000407047C2F10002410021FA02F1C2F1200200FA02FC5FEA310040F1000053EA4C0308BF20EADC70704792F0000F00F0004C02BF400010F4000F013AF9D040EA6E
:403080000C0093F0000F01F0004C02BF490011F4000F013BF9D041EA0C018FE70CEAD15392EA0C0F18BF93EA0C0F0AD030F0004C18BF31F0004CD8D180EA010000F0004076
:4030C000704790F0000F17BF90F0004F084691F0000F91F0004F14D092EA0C0F01D142020FD193EA0C0F03D14B0218BF084608D180EA010000F0004040F0FE4040F40000D2
:40310000704740F0FE4040F4400070474FF0FF0C1CEAD0521EBF1CEAD15392EA0C0F93EA0C0F69D0A2EB030280EA010C49024FEA402037D04FF0805343EA111143EA1013B9
:403140000CF000408B4238BF5B0042F17D024FF4000C8B4224BF5B1A40EA0C00B3EB510F24BFA3EB510340EA5C00B3EB910F24BFA3EB910340EA9C00B3EBD10F24BFA3EB57
:40318000D10340EADC001B0118BF5FEA1C1CE0D1FD2A3FF650AF8B4240EBC25008BF20F0010070470CF0004C4CEA50207F32C2BFD2F1FF0340EAC250704740F400004FF0D1
:4031C0000003013A37E792F0000F00F0004C02BF400010F4000F013AF9D040EA0C0093F0000F01F0004C02BF490011F4000F013BF9D041EA0C0195E70CEAD15392EA0C0F01
:4032000008D142027FF47DAF93EA0C0F7FF470AF084676E793EA0C0F04D14B023FF44CAF08466EE730F0004C18BF31F0004CCAD130F000427FF45CAF31F000437FF43CAF85
:403240005FE700BF4FF0FF3C06E000BF4FF0010C02E000BF4FF0010C4DF804CD4FEA40024FEA41037FEA226C18BF7FEA236C11D001B052EA530C18BF90EA010F58BFB2EBDB
:40328000030088BFC81738BF6FEAE17018BF40F0010070477FEA226C02D15FEA402C05D17FEA236CE4D15FEA412CE1D05DF8040B704700BF844608466146FFE70FB5FFF7E3
:4032C000C9FF002848BF10F1000F0FBD4DF808EDFFF7F4FF0CBF012000205DF808FB00BF4DF808EDFFF7EAFF34BF012000205DF808FB00BF4DF808EDFFF7E0FF94BF0120CE
:4033000000205DF808FB00BF4DF808EDFFF7D2FF94BF012000205DF808FB00BF4DF808EDFFF7C8FF34BF012000205DF808FB00BF4FEA4002B2F1FE4F0FD34FF09E03B3EB9D
:4033400012620DD94FEA002343F0004310F0004F23FA02F018BF404270474FF00000704712F1610F01D1420205D110F0004008BF6FF0004070474FF0000070477BB972B9AC
:403380000029BEBF00204FF0004106E008BF00281CBF6FF000414FF0FF3000F0B5B9ADF1080C6DE904CE002909DB002B1ADB00F035F8DDF804E0DDE9022304B070474042F6
:4033C00061EB4101002B1BDB00F028F8DDF804E0DDE9022304B0404261EB4101524263EB43037047524263EB430300F017F8DDF804E0DDE9022304B0404261EB4101704781
:40340000524263EB430300F009F8DDF804E0DDE9022304B0524263EB430370472DE9F04F8C460C460546099E002B4FD18A4217466BD9B2FA82FEBEF1000F0BD0CEF1200570
:4034400020FA05F501FA0EF345EA030C02FA0EF700FA0EF5390CBCFBF1F0BAB201FB10C300FB02F84FEA154C4CEA0344A04509D9E41900F1FF3380F02881A04540F225811F
:4034800002383C44C8EB0404B4FBF1F301FB134C03FB02F2ACB244EA0C418A4209D9C91903F1FF3480F00F818A4240F20C81023B39448A1A43EA00400021002E63D022FA33
:4034C0000EF2002386E80C00BDE8F08F8B4207D9002E56D0002186E811000846BDE8F08FB3FA83F1002940F09380A34202D3824200F2FE80851A64EB03039C460120002E58
:4035000041D086E82010BDE8F08F12B90127B7FBF2F7B7FA87FEBEF1000F36D1E41B4FEA17481FFA87F90121B4FBF8F308FB134409FB03F24FEA154C4CEA0444A24207D914
:40354000E41903F1FF3002D2A24200F2D3800346A41AB4FBF8F008FB104809FB00F9ACB244EA0842914507D9D21900F1FF3402D2914500F2BA802046C9EB020240EA03403C
:403580009BE731463046BDE8F08F07FA0EF7CEF1200C24FA0CF34FEA1748B3FBF8FA1FFA87F908FB1A3520FA0CFC04FA0EF40AFB09FB4CEA040C4FEA1C4242EA05439B45EB
:4035C00000FA0EF50AD9DB190AF1FF3280F08B809B4540F28880AAF1020A3B44CBEB0303B3FBF8F008FB103300FB09F41FFA8CFC4CEA03439C4207D9DB1900F1FF326ED24F
:403600009C426CD902383B441C1B40EA0A418BE7C1F1200E8B4022FA0EFC4CEA030C24FA0EF74FEA1C49B7FBF9FA1FFA8CF309FB1A7720FA0EF88C400AFB03F548EA0404C4
:403640004FEA144848EA0747BD4202FA01F200FA01FB09D917EB0C070AF1FF3041D2BD423FD9AAF1020A67447F1BB7FBF9F509FB157705FB03F3A4B244EA0747BB4208D944
:4036800017EB0C0705F1FF3027D2BB4225D9023D674445EA0A40A0FB0289FF1A4F4545464C4614D329D066B3BBEB050367EB040707FA0EFECB40CF404EEA030386E888002A
:4036C0000021BDE8F08F2346F3E61846DAE6B8EB020569EB0C040138E5E70546D9E7104692E78246C0E7924678E702383A4443E7084604E7023B3C442AE7C345E7D33C4665
:40370000D1E73146BDE8F08F704700BF014B1868704700BF5081FF1F0E4B70B51E460E4C0025E41AA410A54204D056F8253098470135F8E700F066F8084B094C1E46E41AD2
:40374000A4100025A54204D056F8253098470135F8E770BD1038000010380000103800001838000010B5431E0A44914204D011F8014B03F8014FF8E710BD034602449342FE
:4037800002D003F8011BFAE770470000000000008CFCFF7F010000000001000200020000030002000100020001000200020002000100030002000100000100000001000163
:4037C000000200000200010002000600004F0040300040510040300000000140001000140140000800400140000A004C01400002105001401000000000500140AC0F0048EF
:4038000010004300F8B500BFF8BC08BC9E4670474D00000031170000F8B500BFF8BC08BC9E4670472900000038380000C880FF1F9000000078000000000000005A00000041
:403840005A000000FFFFFFFF807F0000030000000087930360EA00003C000000000030750000000000000000000000000000000000000000000000000000000000000000A8
:4038800002380000000000000000000000000000000000000000000000000000000000000000000000000000000000000000000000000000000000000000000000000000CE
:4038C000F080FF1F0000000000000000000000000000000000000000000000000000000000000000000000000000000000000000000000000000000000000000000000003A
:403900000000000000000000000000000000000000000000000000000000000000000000000000000000000000000000000000000000000000000000000000000000000087
:403940000000000000000000000000000000000000000000000000000000000000000000000000000000000000000000000000000000000000000000000000000000000047
:403980000000000000000000000000000000000000000000000000000000000000000000000000000000000000000000000000000000000000000000000000000000000007
:4039C00000000000000000000000000000000000000000000000000000000000000000000000000000000000000000000000000000000000000000000000000000000000C7
:020000040003F7
:0200000480007A
:4000000001450040084F004009520040015B00400464004004650040430001403301014045020140500301405A0401404B05014052060140550701403A0801405309014080
:40004000330A01404A0B01403D0C01404B0D0140500E01402F0F01403C14014048150140391601404F17014050180140531901402A1A0140541B0140104001401741014010
:40008000164201401543014003440140124501400A460140104701401348014017490140144C0140064D014006500140035101407E0201300A270D301627195022272540B4
:4000C0002E2700A0016008100910182819206063616B7C402F84816F820F846F8B0F843887728A058B0F0430057306C90894099E0A600B6011FD120F1302149E159416606E
:400100001760187319CF1B301F0F20CF2130223023C928FD2A0230FF35FF3E013F10580459045F0181A3835C85C58602873A880289FE8B018E0890109402950E97F09808BA
:400140009B019E11A002A402A596A768A97FAA04AE08B001B206B3FFB410B608BE50BF04D280D40FD804D904DB04DF0500200330044006040710080209060A200B180C804D
:400180000E440F101122124414021640172818801E7A2004272028802F243029324036103708382039083D2A3E025D105E085F4266086704774079407A017F04C0E6C2FE53
:4001C000C4FACA61CC6FCEE6D6F0D860DE20E404E6020008015803A1040605AC075109FB0B040E101010153017CF181019771C05200821CC233224032C063008310F321071
:40020000340735F038223E04540F580459045B045F01850E863C883089028A088B048C028F1090309204930E96019701981E990EA002A308A420A508A604A82CA902AA10DD
:40024000AB04AD20B001B11EB23CB301B520B602B880BE40BF10D804D904DF0102010329044005080640082009210B180D020E040F011080112012501308142016021701A7
:4002800019091A221B8C1C401D201E28210A22202408251129802A022B242E02312232083420370838883A103D203F0A5D405E285F01811083018B218D018E209080914006
:4002C0009210946095189624974C99209A029B489C019E089F02A4A0A513A720A808A920AA40AC90AF08B404C0B7C2DEC4BECA8FCC67CEEED6F0E212EA99EE030501060214
:400300000D08140815031D031F0C220124042A082C012E02300431043203330835013608370239A03A203E413F144051410449FF4AFF4BFF4DA04F015018540F5804590452
:400340005A045B045C025F056040628064406540668068406A806C406D206E8080048303960C98019901A603AE04B008B201B402B502B604B701BE44BF40C015C104C53C74
:40038000C640C72EC83BC9FFCAFFCBFFCDAFCE07CF01D018D804D904DA04DF01E040E280E440E540E680E840EA80EC40ED20EE800004050109080E18100211081208132140
:4003C000152016241740188019081A011B201DC11E0C1F082040215022042620270232883620384039083F0241024380458249404C804E014F04562957015A895B2061240B
:400400007908855087018C409212942095189604975499209B449E099F02A10AA380A4A0A608AB04AC01B580C014C264C4AFCC2ACE8AD099D218D60FD806DE02E202E610CC
:40044000E840EA0EEC404012410649FF4AFF4BFF4DA04F015018580459045A045C115F016040628064406540668068406A806C406D206E80830487088C308EC39104930876
:4004800094809622970198F39A049C409E11A30CA60CA8F3AA08AB02AC51AEA2B0F0B20FB301B70EB880BA08BE40BF40C012C106C53EC6C4C702C81FC9FFCAFFCBFFCDAFFE
:4004C000CE07CF01D018D608D804D904DA04DB04DC02DD90DF01E040E280E440E540E680E840EA80EC40ED20EE800040051008080A080B010C240F40100211101210150812
:40050000160A184019011A011B042003231029012A102B042C20300231083404351038043B013C203E0A3F404002411044024540460449244A804D205080512052085B54A1
:40054000600C6108630168028410850488808A028B408F4091209404971199289A049B049D04A140A320A402A524A688A810AA40AD04B020B348B540C041C277C4E7CA45B5
:40058000CC63CEF3D03CD224D60ED80EE208E602EA0CEE01040208011E0826042A022C0230013202340436083E054002460449FF4A074BFF4C404D204EF04F05500852034A
:4005C0005302580459045A045B045C105D125F01604061A8624063208A088C01900296109A019E22A204A404A702A808AB01B020B102B301B41FB820BE10D608D804D904DB
:40060000DB04DC11DD90DF0100A80120028003020424081009800A600B040F021109120113101402162418801A481C041E201F4120802310281029222A012B022D102F028A
:40064000328033043680370438803A083B103C083E403F10442045044714568057105B4063026D606F01871088048A288B01948495599640979098209A049C809E20A00490
:40068000A408A690A702A904AB10AC80AD20B204B684C06FC28FC4EFCA3FCC5ACE7ED020D608D808E230E480E622EC10EE2017013501580459045C115F01820183108440CC
:4006C0008510883089678A088E028F0F902091AB92049304963C99CC9A019B029C01A02CA210A5CCA640A701A830A908AA04AB01AC1CAF10B001B110B240B30FB43CB5E046
:40070000B602B920BE05BF01D280D40FD804D904DB04DF0100080130030204040510064108200A400E1A0F8012801310162217111C801D541E041F102008221024402530A7
:40074000271829202B022C802E922F10300832903402371138823B103C063D203F805C425E205F08764084408A02900292109480955997B098209A019B019C809D409F10A1
:40078000A001A207A340A484A510A680A702A810AC02AE04AF01B440C0F7C2FAC4FACA7CCCAECEFDD6F0E84002010404060208C00A300C020E04105012A0143016C01A0877
:4007C0001C7020F02402260428A02A502C022E043001320634F036083A085608580459045B045C105D905F018103850386068A068B038C068D0390069C069D029F01A2013D
:40080000A806AB03AC04AD03AE02B101B204B402B502B601D401D804D904DB0CDC11DD10DF010008011003020544068808400A020B400C800E180F801101139015081601D3
:40084000171118221A0A1D051E061F042202230828042B022C442D102F0232803680378038863B503C0C3F5058805C406680680A794086048B0C8C298E019210960497A067
:400880009A089C809D019F10A001A204A340A510A801AA11AD80AE01AF10B480B708C0F7C2F9C4FBCABCCC18CE7FD618D810DE08E282E448EA90EC40000201020201030473
:4008C0000401060209040A200B020C080E100F10100812101308140816101C011D021E061F04200122022301250227042C102E083020311032033306340435083618370115
:400900003A883B08580459045F0180448208844485FE86088701897F8A208D968F689202961C9701985C99C59B3A9C109E40A201A41CA5A3A75CA840A90EAA10ABF0AE80BF
:40094000B001B1FFB202B4C0B63CBF01D608D804D904DB04DD90DF010065040107180A200B810D800E64104011801668174018041A921B401C221D041E4A1F0120402212E7
:4009800023112740284029052E182F103242360437103B923DA03E243F805D406640814084018610C07FC2FDC4F9CA63CC69CE7DD610D810E602020804010A100E04100138
:4009C000160218021C0122102608280130013206340836103E51406141024203440545C0460E480649FF4AFF4BFF4C624DA04EF04F41500C54185604580459045A045B04B0
:400A00005C195D225F016640670269106A306B106D106E106F12850189018D01950199019F01A501B501D804D904DC11DF010080012003A80550062009200A610F401080BF
:400A40001208130414081611180519061A202620282829402A012C2030203420354036043A203B403D083E203F404140432848814A0853805A02600562028104820188201D
:400A80008A108C088E26918092439344982099709A209D06A041A120A208A320A420A504A604B220C0EFC21FC4EECA4FCC74CE7CD00ED20CD601D80DE294E614EC6006035F
:400AC000140132023401580C59045C115F01811182C38506860C88CF89028A308C7C8E828F11903C910892C19408950898FF99319B069C049D079F30A020A104A410A537A7
:400B0000A830A908AC04AD06AE08AF31B0B0B110B307B470B520B63FB708B920BA82BB08D602D713D804D904DB04DC22DD20DF0101880288050408080A440B010E20108A50
:400B4000130819A01AC11D201E2021402289230429802A022B242C2032443311342435503604382939803C203D083E283F404204432059026120622069106A086B01709CCD
:400B80007202730879107B047E028208831088408C209001934195109608980899489C049D109E08A013A202A320A420AB10AF10B160B203B504C02FC22FC40FCA4FCC7F23
:400BC000CE7FD601DE10E818EA04EC40EE80020803080440054006830B150CA10E161133130C141C16A31E1C210323042533270428A1292A2A0E2B042E803080320F33306A
:400C0000341A35403660370F388039083A283B803E013F1440464102450E47CB483149FF4AFF4BFF4EF04F44500C5608580459045A045B045C225D925F0166C06A406B02E0
:400C400080098210860388208C108E0C9301940C9611981C9A02A010A414A820B21FB420B701B820BE10D804D904DC12DF01000201080208030106E007010B280E1210049F
:400C800011281240160A182419081C021E921F1C22802719282029102B022E0A2F1830023284370138803B103C023D043E203F2046084701480449104D044F205505560208
:400CC0005D80640188018E809080915092489310942095019620970498209A809C809F10A044A110A312A418A580A680AD04B002B112B204B741C0BFC2A6C4CECAEECC8BC8
:400D0000CEECD0A0D220D610D810E240E620E830EA84EC8000040410062008080E01120216081A041C0220402280240128202A102C802E4032FF3E04560257365804590410
:400D40005B0C5C105D105F0188018E0190019401A401AA01AC01B201D401D604D804D904DB04DC11DD20DF0100A80181020105100702082109800A400B100E400F10100AEB
:400D80001280130614201510160117101A201E20282029902D102E40300132803310342036803B103C883F1058045C025D205E805F0860046502681A6901718073047940EB
:400DC000810282408402850488408A108C208D219004915492409310950196209704982499109B08A044A101A2C0A41AA580AE08B080B580C0CFC23FC4EFCA3ECC3DCE748A
:400E0000D6F2D884DE08E2C0E620E820EA08EC6011081680324235083640388039043E807E4883808640C430CCF0CE70E420E640038007203110320837805F086020660859
:400E400086028C0494809504A104A208A602A780B108B640C030CC70D680D8C0E2401780500454808C0190089480950496409A209C209D129E089F80A104AB28AE20B50256
:400E8000B640C480D460E880EA3019011E4068806C8073107640850490019480950496409A209C209D129E08A104A480C630DCE0DE20E64071088740DC0100100A4021041A
:400EC0005380840887048B108D0897409C40A508B040C002C208C802D404E409EA018B01901091089240931897409C40A408A780E40408400B400C0887108C1090109108BF
:400F00009240931897409B019C40A408A780C20EE20800100502208090019240949099019A209C209D129E08A104B080B240B310B410B501C060C84056206001650172409A
:400F4000811088208C408E0890019240948099019A209C209D109E08B040B504D440D640D880DC80E6201F10340153045B0167109108931897209A209B01AA40B220B7809D
:400F8000C601CC01D404D602D801E802EC0176209A20AD04B001DE04EC04100611011A061B011C061D0100AB01FF100A070100000000000001000701070103010300000030
:400FC00000E0E0006300007F7F007F00000000004000060000000000C0000000000B0B00003434000800144A4A00080000000000007B7B00380000000001000000000000E6
:4010000000000000000000000000000000000000000000000000000000000000000000000000000000000000000000000000000000000000000000000000000000000000B0
:401040000000000000000000000000000000000000000000000000000000000000000000000000000000000000000000000000000000000000000000000000000000000070
:401080000000000000000000000000000000000000000000000000000000000000000000000000000000000000000000000000000000000000000000000000000000000030
:4010C00000000000000000000000000000000000000000000000000000000000000000000000000000000000000000000000000000000000000000000000000000000000F0
:0200000490006A
:0400000000004005B7
:0200000490105A
:04000000BC90ACAF55
:0200000490303A
:02000000917DF0
:0200000490402A
:4000000000000000000000000000000000000000000000000000000000000000000000000000000000000000000000000000000000000000000000000000000000000000C0
:400040000000000000000000000000000000000000000000000000000000000000000000000000000000000000000000000000000000000000000000000000000000000080
:400080000000000000000000000000000000000000000000000000000000000000000000000000000000000000000000000000000000000000000000000000000000000040
:4000C0000000000000000000000000000000000000000000000000000000000000000000000000000000000000000000000000000000000000000000000000000000000000
:0200000490501A
:0C00000000012E16106900012E31A1E64F
:00000001FF